{
    "contractName": "Voter",
    "abi": [
        {
            "anonymous": false,
            "inputs": [
                {
                    "indexed": false,
                    "internalType": "uint256",
                    "name": "tokenId",
                    "type": "uint256"
                },
                {
                    "indexed": false,
                    "internalType": "uint256",
                    "name": "weight",
                    "type": "uint256"
                }
            ],
            "name": "Abstained",
            "type": "event"
        },
        {
            "anonymous": false,
            "inputs": [
                {
                    "indexed": true,
                    "internalType": "address",
                    "name": "owner",
                    "type": "address"
                },
                {
                    "indexed": true,
                    "internalType": "address",
                    "name": "gauge",
                    "type": "address"
                },
                {
                    "indexed": false,
                    "internalType": "uint256",
                    "name": "tokenId",
                    "type": "uint256"
                }
            ],
            "name": "Attach",
            "type": "event"
        },
        {
            "anonymous": false,
            "inputs": [
                {
                    "indexed": true,
                    "internalType": "address",
                    "name": "lp",
                    "type": "address"
                },
                {
                    "indexed": true,
                    "internalType": "address",
                    "name": "gauge",
                    "type": "address"
                },
                {
                    "indexed": false,
                    "internalType": "uint256",
                    "name": "tokenId",
                    "type": "uint256"
                },
                {
                    "indexed": false,
                    "internalType": "uint256",
                    "name": "amount",
                    "type": "uint256"
                }
            ],
            "name": "Deposit",
            "type": "event"
        },
        {
            "anonymous": false,
            "inputs": [
                {
                    "indexed": true,
                    "internalType": "address",
                    "name": "owner",
                    "type": "address"
                },
                {
                    "indexed": true,
                    "internalType": "address",
                    "name": "gauge",
                    "type": "address"
                },
                {
                    "indexed": false,
                    "internalType": "uint256",
                    "name": "tokenId",
                    "type": "uint256"
                }
            ],
            "name": "Detach",
            "type": "event"
        },
        {
            "anonymous": false,
            "inputs": [
                {
                    "indexed": true,
                    "internalType": "address",
                    "name": "sender",
                    "type": "address"
                },
                {
                    "indexed": true,
                    "internalType": "address",
                    "name": "gauge",
                    "type": "address"
                },
                {
                    "indexed": false,
                    "internalType": "uint256",
                    "name": "amount",
                    "type": "uint256"
                }
            ],
            "name": "DistributeReward",
            "type": "event"
        },
        {
            "anonymous": false,
            "inputs": [
                {
                    "indexed": true,
                    "internalType": "address",
                    "name": "gauge",
                    "type": "address"
                },
                {
                    "indexed": false,
                    "internalType": "address",
                    "name": "creator",
                    "type": "address"
                },
                {
                    "indexed": false,
                    "internalType": "address",
                    "name": "internal_bribe",
                    "type": "address"
                },
                {
                    "indexed": true,
                    "internalType": "address",
                    "name": "external_bribe",
                    "type": "address"
                },
                {
                    "indexed": true,
                    "internalType": "address",
                    "name": "pool",
                    "type": "address"
                }
            ],
            "name": "GaugeCreated",
            "type": "event"
        },
        {
            "anonymous": false,
            "inputs": [
                {
                    "indexed": true,
                    "internalType": "address",
                    "name": "gauge",
                    "type": "address"
                }
            ],
            "name": "GaugeKilled",
            "type": "event"
        },
        {
            "anonymous": false,
            "inputs": [
                {
                    "indexed": true,
                    "internalType": "address",
                    "name": "gauge",
                    "type": "address"
                }
            ],
            "name": "GaugeRevived",
            "type": "event"
        },
        {
            "anonymous": false,
            "inputs": [
                {
                    "indexed": false,
                    "internalType": "uint8",
                    "name": "version",
                    "type": "uint8"
                }
            ],
            "name": "Initialized",
            "type": "event"
        },
        {
            "anonymous": false,
            "inputs": [
                {
                    "indexed": true,
                    "internalType": "address",
                    "name": "sender",
                    "type": "address"
                },
                {
                    "indexed": true,
                    "internalType": "address",
                    "name": "reward",
                    "type": "address"
                },
                {
                    "indexed": false,
                    "internalType": "uint256",
                    "name": "amount",
                    "type": "uint256"
                }
            ],
            "name": "NotifyReward",
            "type": "event"
        },
        {
            "anonymous": false,
            "inputs": [
                {
                    "indexed": true,
                    "internalType": "address",
                    "name": "voter",
                    "type": "address"
                },
                {
                    "indexed": false,
                    "internalType": "uint256",
                    "name": "tokenId",
                    "type": "uint256"
                },
                {
                    "indexed": false,
                    "internalType": "uint256",
                    "name": "weight",
                    "type": "uint256"
                }
            ],
            "name": "Voted",
            "type": "event"
        },
        {
            "anonymous": false,
            "inputs": [
                {
                    "indexed": true,
                    "internalType": "address",
                    "name": "whitelister",
                    "type": "address"
                },
                {
                    "indexed": true,
                    "internalType": "address",
                    "name": "token",
                    "type": "address"
                }
            ],
            "name": "Whitelisted",
            "type": "event"
        },
        {
            "anonymous": false,
            "inputs": [
                {
                    "indexed": true,
                    "internalType": "address",
                    "name": "lp",
                    "type": "address"
                },
                {
                    "indexed": true,
                    "internalType": "address",
                    "name": "gauge",
                    "type": "address"
                },
                {
                    "indexed": false,
                    "internalType": "uint256",
                    "name": "tokenId",
                    "type": "uint256"
                },
                {
                    "indexed": false,
                    "internalType": "uint256",
                    "name": "amount",
                    "type": "uint256"
                }
            ],
            "name": "Withdraw",
            "type": "event"
        },
        {
            "inputs": [],
            "name": "_ve",
            "outputs": [
                {
                    "internalType": "address",
                    "name": "",
                    "type": "address"
                }
            ],
            "stateMutability": "view",
            "type": "function"
        },
        {
            "inputs": [
                {
                    "internalType": "uint256",
                    "name": "tokenId",
                    "type": "uint256"
                },
                {
                    "internalType": "address",
                    "name": "account",
                    "type": "address"
                }
            ],
            "name": "attachTokenToGauge",
            "outputs": [],
            "stateMutability": "nonpayable",
            "type": "function"
        },
        {
            "inputs": [],
            "name": "bribefactory",
            "outputs": [
                {
                    "internalType": "address",
                    "name": "",
                    "type": "address"
                }
            ],
            "stateMutability": "view",
            "type": "function"
        },
        {
            "inputs": [
                {
                    "internalType": "address[]",
                    "name": "_bribes",
                    "type": "address[]"
                },
                {
                    "internalType": "address[][]",
                    "name": "_tokens",
                    "type": "address[][]"
                },
                {
                    "internalType": "uint256",
                    "name": "_tokenId",
                    "type": "uint256"
                }
            ],
            "name": "claimBribes",
            "outputs": [],
            "stateMutability": "nonpayable",
            "type": "function"
        },
        {
            "inputs": [
                {
                    "internalType": "address[]",
                    "name": "_fees",
                    "type": "address[]"
                },
                {
                    "internalType": "address[][]",
                    "name": "_tokens",
                    "type": "address[][]"
                },
                {
                    "internalType": "uint256",
                    "name": "_tokenId",
                    "type": "uint256"
                }
            ],
            "name": "claimFees",
            "outputs": [],
            "stateMutability": "nonpayable",
            "type": "function"
        },
        {
            "inputs": [
                {
                    "internalType": "address[]",
                    "name": "_gauges",
                    "type": "address[]"
                },
                {
                    "internalType": "address[][]",
                    "name": "_tokens",
                    "type": "address[][]"
                }
            ],
            "name": "claimRewards",
            "outputs": [],
            "stateMutability": "nonpayable",
            "type": "function"
        },
        {
            "inputs": [
                {
                    "internalType": "address",
                    "name": "",
                    "type": "address"
                }
            ],
            "name": "claimable",
            "outputs": [
                {
                    "internalType": "uint256",
                    "name": "",
                    "type": "uint256"
                }
            ],
            "stateMutability": "view",
            "type": "function"
        },
        {
            "inputs": [
                {
                    "internalType": "address",
                    "name": "_pool",
                    "type": "address"
                }
            ],
            "name": "createGauge",
            "outputs": [
                {
                    "internalType": "address",
                    "name": "",
                    "type": "address"
                }
            ],
            "stateMutability": "nonpayable",
            "type": "function"
        },
        {
            "inputs": [
                {
                    "internalType": "uint256",
                    "name": "tokenId",
                    "type": "uint256"
                },
                {
                    "internalType": "address",
                    "name": "account",
                    "type": "address"
                }
            ],
            "name": "detachTokenFromGauge",
            "outputs": [],
            "stateMutability": "nonpayable",
            "type": "function"
        },
        {
            "inputs": [
                {
                    "internalType": "address[]",
                    "name": "_gauges",
                    "type": "address[]"
                }
            ],
            "name": "distribute",
            "outputs": [],
            "stateMutability": "nonpayable",
            "type": "function"
        },
        {
            "inputs": [
                {
                    "internalType": "address",
                    "name": "_gauge",
                    "type": "address"
                }
            ],
            "name": "distribute",
            "outputs": [],
            "stateMutability": "nonpayable",
            "type": "function"
        },
        {
            "inputs": [
                {
                    "internalType": "uint256",
                    "name": "start",
                    "type": "uint256"
                },
                {
                    "internalType": "uint256",
                    "name": "finish",
                    "type": "uint256"
                }
            ],
            "name": "distribute",
            "outputs": [],
            "stateMutability": "nonpayable",
            "type": "function"
        },
        {
            "inputs": [],
            "name": "distribute",
            "outputs": [],
            "stateMutability": "nonpayable",
            "type": "function"
        },
        {
            "inputs": [
                {
                    "internalType": "address[]",
                    "name": "_gauges",
                    "type": "address[]"
                }
            ],
            "name": "distributeFees",
            "outputs": [],
            "stateMutability": "nonpayable",
            "type": "function"
        },
        {
            "inputs": [],
            "name": "distro",
            "outputs": [],
            "stateMutability": "nonpayable",
            "type": "function"
        },
        {
            "inputs": [],
            "name": "emergencyCouncil",
            "outputs": [
                {
                    "internalType": "address",
                    "name": "",
                    "type": "address"
                }
            ],
            "stateMutability": "view",
            "type": "function"
        },
        {
            "inputs": [
                {
                    "internalType": "uint256",
                    "name": "tokenId",
                    "type": "uint256"
                },
                {
                    "internalType": "address",
                    "name": "account",
                    "type": "address"
                },
                {
                    "internalType": "uint256",
                    "name": "amount",
                    "type": "uint256"
                }
            ],
            "name": "emitDeposit",
            "outputs": [],
            "stateMutability": "nonpayable",
            "type": "function"
        },
        {
            "inputs": [
                {
                    "internalType": "uint256",
                    "name": "tokenId",
                    "type": "uint256"
                },
                {
                    "internalType": "address",
                    "name": "account",
                    "type": "address"
                },
                {
                    "internalType": "uint256",
                    "name": "amount",
                    "type": "uint256"
                }
            ],
            "name": "emitWithdraw",
            "outputs": [],
            "stateMutability": "nonpayable",
            "type": "function"
        },
        {
            "inputs": [
                {
                    "internalType": "address",
                    "name": "",
                    "type": "address"
                }
            ],
            "name": "external_bribes",
            "outputs": [
                {
                    "internalType": "address",
                    "name": "",
                    "type": "address"
                }
            ],
            "stateMutability": "view",
            "type": "function"
        },
        {
            "inputs": [],
            "name": "factory",
            "outputs": [
                {
                    "internalType": "address",
                    "name": "",
                    "type": "address"
                }
            ],
            "stateMutability": "view",
            "type": "function"
        },
        {
            "inputs": [],
            "name": "gaugefactory",
            "outputs": [
                {
                    "internalType": "address",
                    "name": "",
                    "type": "address"
                }
            ],
            "stateMutability": "view",
            "type": "function"
        },
        {
            "inputs": [
                {
                    "internalType": "address",
                    "name": "",
                    "type": "address"
                }
            ],
            "name": "gauges",
            "outputs": [
                {
                    "internalType": "address",
                    "name": "",
                    "type": "address"
                }
            ],
            "stateMutability": "view",
            "type": "function"
        },
        {
            "inputs": [],
            "name": "governor",
            "outputs": [
                {
                    "internalType": "address",
                    "name": "",
                    "type": "address"
                }
            ],
            "stateMutability": "view",
            "type": "function"
        },
        {
            "inputs": [
                {
                    "internalType": "address[]",
                    "name": "_tokens",
                    "type": "address[]"
                },
                {
                    "internalType": "address",
                    "name": "_minter",
                    "type": "address"
                }
            ],
            "name": "initialSetup",
            "outputs": [],
            "stateMutability": "nonpayable",
            "type": "function"
        },
        {
            "inputs": [
                {
                    "internalType": "address",
                    "name": "__ve",
                    "type": "address"
                },
                {
                    "internalType": "address",
                    "name": "_factory",
                    "type": "address"
                },
                {
                    "internalType": "address",
                    "name": "_gauges",
                    "type": "address"
                },
                {
                    "internalType": "address",
                    "name": "_bribes",
                    "type": "address"
                }
            ],
            "name": "initialize",
            "outputs": [],
            "stateMutability": "nonpayable",
            "type": "function"
        },
        {
            "inputs": [
                {
                    "internalType": "address",
                    "name": "",
                    "type": "address"
                }
            ],
            "name": "internal_bribes",
            "outputs": [
                {
                    "internalType": "address",
                    "name": "",
                    "type": "address"
                }
            ],
            "stateMutability": "view",
            "type": "function"
        },
        {
            "inputs": [
                {
                    "internalType": "address",
                    "name": "",
                    "type": "address"
                }
            ],
            "name": "isAlive",
            "outputs": [
                {
                    "internalType": "bool",
                    "name": "",
                    "type": "bool"
                }
            ],
            "stateMutability": "view",
            "type": "function"
        },
        {
            "inputs": [
                {
                    "internalType": "address",
                    "name": "",
                    "type": "address"
                }
            ],
            "name": "isGauge",
            "outputs": [
                {
                    "internalType": "bool",
                    "name": "",
                    "type": "bool"
                }
            ],
            "stateMutability": "view",
            "type": "function"
        },
        {
            "inputs": [
                {
                    "internalType": "address",
                    "name": "",
                    "type": "address"
                }
            ],
            "name": "isWhitelisted",
            "outputs": [
                {
                    "internalType": "bool",
                    "name": "",
                    "type": "bool"
                }
            ],
            "stateMutability": "view",
            "type": "function"
        },
        {
            "inputs": [
                {
                    "internalType": "address",
                    "name": "_gauge",
                    "type": "address"
                }
            ],
            "name": "killGauge",
            "outputs": [],
            "stateMutability": "nonpayable",
            "type": "function"
        },
        {
            "inputs": [
                {
                    "internalType": "uint256",
                    "name": "",
                    "type": "uint256"
                }
            ],
            "name": "lastVoted",
            "outputs": [
                {
                    "internalType": "uint256",
                    "name": "",
                    "type": "uint256"
                }
            ],
            "stateMutability": "view",
            "type": "function"
        },
        {
            "inputs": [],
            "name": "length",
            "outputs": [
                {
                    "internalType": "uint256",
                    "name": "",
                    "type": "uint256"
                }
            ],
            "stateMutability": "view",
            "type": "function"
        },
        {
            "inputs": [],
            "name": "minter",
            "outputs": [
                {
                    "internalType": "address",
                    "name": "",
                    "type": "address"
                }
            ],
            "stateMutability": "view",
            "type": "function"
        },
        {
            "inputs": [
                {
                    "internalType": "uint256",
                    "name": "amount",
                    "type": "uint256"
                }
            ],
            "name": "notifyRewardAmount",
            "outputs": [],
            "stateMutability": "nonpayable",
            "type": "function"
        },
        {
            "inputs": [
                {
                    "internalType": "uint256",
                    "name": "_tokenId",
                    "type": "uint256"
                }
            ],
            "name": "poke",
            "outputs": [],
            "stateMutability": "nonpayable",
            "type": "function"
        },
        {
            "inputs": [
                {
                    "internalType": "address",
                    "name": "",
                    "type": "address"
                }
            ],
            "name": "poolForGauge",
            "outputs": [
                {
                    "internalType": "address",
                    "name": "",
                    "type": "address"
                }
            ],
            "stateMutability": "view",
            "type": "function"
        },
        {
            "inputs": [
                {
                    "internalType": "uint256",
                    "name": "",
                    "type": "uint256"
                },
                {
                    "internalType": "uint256",
                    "name": "",
                    "type": "uint256"
                }
            ],
            "name": "poolVote",
            "outputs": [
                {
                    "internalType": "address",
                    "name": "",
                    "type": "address"
                }
            ],
            "stateMutability": "view",
            "type": "function"
        },
        {
            "inputs": [
                {
                    "internalType": "uint256",
                    "name": "",
                    "type": "uint256"
                }
            ],
            "name": "pools",
            "outputs": [
                {
                    "internalType": "address",
                    "name": "",
                    "type": "address"
                }
            ],
            "stateMutability": "view",
            "type": "function"
        },
        {
            "inputs": [
                {
                    "internalType": "uint256",
                    "name": "_tokenId",
                    "type": "uint256"
                }
            ],
            "name": "reset",
            "outputs": [],
            "stateMutability": "nonpayable",
            "type": "function"
        },
        {
            "inputs": [
                {
                    "internalType": "address",
                    "name": "_gauge",
                    "type": "address"
                }
            ],
            "name": "reviveGauge",
            "outputs": [],
            "stateMutability": "nonpayable",
            "type": "function"
        },
        {
            "inputs": [
                {
                    "internalType": "address",
                    "name": "_council",
                    "type": "address"
                }
            ],
            "name": "setEmergencyCouncil",
            "outputs": [],
            "stateMutability": "nonpayable",
            "type": "function"
        },
        {
            "inputs": [
                {
                    "internalType": "address",
                    "name": "_governor",
                    "type": "address"
                }
            ],
            "name": "setGovernor",
            "outputs": [],
            "stateMutability": "nonpayable",
            "type": "function"
        },
        {
            "inputs": [],
            "name": "totalWeight",
            "outputs": [
                {
                    "internalType": "uint256",
                    "name": "",
                    "type": "uint256"
                }
            ],
            "stateMutability": "view",
            "type": "function"
        },
        {
            "inputs": [],
            "name": "updateAll",
            "outputs": [],
            "stateMutability": "nonpayable",
            "type": "function"
        },
        {
            "inputs": [
                {
                    "internalType": "address[]",
                    "name": "_gauges",
                    "type": "address[]"
                }
            ],
            "name": "updateFor",
            "outputs": [],
            "stateMutability": "nonpayable",
            "type": "function"
        },
        {
            "inputs": [
                {
                    "internalType": "uint256",
                    "name": "start",
                    "type": "uint256"
                },
                {
                    "internalType": "uint256",
                    "name": "end",
                    "type": "uint256"
                }
            ],
            "name": "updateForRange",
            "outputs": [],
            "stateMutability": "nonpayable",
            "type": "function"
        },
        {
            "inputs": [
                {
                    "internalType": "address",
                    "name": "_gauge",
                    "type": "address"
                }
            ],
            "name": "updateGauge",
            "outputs": [],
            "stateMutability": "nonpayable",
            "type": "function"
        },
        {
            "inputs": [
                {
                    "internalType": "uint256",
                    "name": "",
                    "type": "uint256"
                }
            ],
            "name": "usedWeights",
            "outputs": [
                {
                    "internalType": "uint256",
                    "name": "",
                    "type": "uint256"
                }
            ],
            "stateMutability": "view",
            "type": "function"
        },
        {
            "inputs": [
                {
                    "internalType": "uint256",
                    "name": "tokenId",
                    "type": "uint256"
                },
                {
                    "internalType": "address[]",
                    "name": "_poolVote",
                    "type": "address[]"
                },
                {
                    "internalType": "uint256[]",
                    "name": "_weights",
                    "type": "uint256[]"
                }
            ],
            "name": "vote",
            "outputs": [],
            "stateMutability": "nonpayable",
            "type": "function"
        },
        {
            "inputs": [
                {
                    "internalType": "uint256",
                    "name": "",
                    "type": "uint256"
                },
                {
                    "internalType": "address",
                    "name": "",
                    "type": "address"
                }
            ],
            "name": "votes",
            "outputs": [
                {
                    "internalType": "uint256",
                    "name": "",
                    "type": "uint256"
                }
            ],
            "stateMutability": "view",
            "type": "function"
        },
        {
            "inputs": [
                {
                    "internalType": "address",
                    "name": "",
                    "type": "address"
                }
            ],
            "name": "weights",
            "outputs": [
                {
                    "internalType": "uint256",
                    "name": "",
                    "type": "uint256"
                }
            ],
            "stateMutability": "view",
            "type": "function"
        },
        {
            "inputs": [
                {
                    "internalType": "address",
                    "name": "_token",
                    "type": "address"
                }
            ],
            "name": "whitelist",
            "outputs": [],
            "stateMutability": "nonpayable",
            "type": "function"
        }
    ],
    "bytecode": "608060405234801561001057600080fd5b5061378d806100206000396000f3fe608060405234801561001057600080fd5b506004361061030c5760003560e01c80637ac09bf71161019d578063ae21c4cb116100e9578063d560b0d7116100a2578063ea94ee441161007c578063ea94ee4414610753578063eae40f2614610766578063f3594be01461078f578063f8c8765e146107af57600080fd5b8063d560b0d71461072d578063e4fc6b6d1461048c578063e586875f1461074057600080fd5b8063ae21c4cb14610677578063b9a09fd5146106a0578063c42cf535146106c9578063c45a0155146106dc578063c527ee1f146106ef578063d23254b41461070257600080fd5b80639f06247b11610156578063a7cac84611610130578063a7cac8461461060e578063a86a366d1461062e578063aa79979b14610641578063ac4afa381461066457600080fd5b80639f06247b146105d5578063a5f4301e146105e8578063a61c713a146105fb57600080fd5b80637ac09bf7146105675780638dd598fb1461057a57806396c82e5714610593578063992a79331461059c5780639b19251a146105af5780639b6a9d72146105c257600080fd5b8063411b1f771161025c57806368c3acb3116102155780637625391a116101ef5780637625391a1461050e5780637715ee75146105215780637778960e1461053457806379e938241461054757600080fd5b806368c3acb3146104d5578063698473e3146104e85780636ecbe38a146104fb57600080fd5b8063411b1f771461047957806347b3c6ba1461048c57806353d78693146104945780636138889b1461049c57806363453ae1146104af578063666256aa146104c257600080fd5b8063310bd74b116102c957806338752a9d116102a357806338752a9d146104105780633af32abf146104235780633c6b16ab14610446578063402914f51461045957600080fd5b8063310bd74b146103d757806332145f90146103ea57806335ddba1f146103fd57600080fd5b806306d6a1b21461031157806307546172146103575780630c340a241461036a5780631703e5f91461037d5780631f7b6d32146103b057806320b1cb6f146103c2575b600080fd5b61033a61031f366004613016565b600b602052600090815260409020546001600160a01b031681565b6040516001600160a01b0390911681526020015b60405180910390f35b60055461033a906001600160a01b031681565b60065461033a906001600160a01b031681565b6103a061038b366004613016565b60156020526000908152604090205460ff1681565b604051901515815260200161034e565b6009545b60405190815260200161034e565b6103d56103d0366004613199565b6107c2565b005b6103d56103e53660046131fd565b610878565b6103d56103f83660046131fd565b610a47565b6103d561040b366004613216565b610b97565b60045461033a906001600160a01b031681565b6103a0610431366004613016565b60146020526000908152604090205460ff1681565b6103d56104543660046131fd565b610c42565b6103b4610467366004613016565b60196020526000908152604090205481565b6103d5610487366004613268565b610ce5565b6103d5610dbb565b6103d5610dcc565b6103d56104aa36600461328d565b610ddb565b6103d56104bd366004613016565b610e1f565b6103d56104d03660046132ca565b61106b565b60035461033a906001600160a01b031681565b6103d56104f6366004613268565b6111ac565b6103d5610509366004613016565b6112d0565b6103d561051c366004613337565b6112dc565b6103d561052f3660046132ca565b611342565b60075461033a906001600160a01b031681565b6103b46105553660046131fd565b60116020526000908152604090205481565b6103d56105753660046133a5565b611483565b60005461033a906201000090046001600160a01b031681565b6103b460085481565b6103d56105aa366004613016565b611613565b6103d56105bd366004613016565b611718565b6103d56105d0366004613337565b61176a565b6103d56105e3366004613016565b6117d0565b61033a6105f6366004613016565b6118cd565b6103d561060936600461341f565b611fe9565b6103b461061c366004613016565b600e6020526000908152604090205481565b61033a61063c366004613337565b6120b2565b6103a061064f366004613016565b60136020526000908152604090205460ff1681565b61033a6106723660046131fd565b6120ea565b61033a610685366004613016565b600d602052600090815260409020546001600160a01b031681565b61033a6106ae366004613016565b600a602052600090815260409020546001600160a01b031681565b6103d56106d7366004613016565b612114565b60015461033a906001600160a01b031681565b6103d56106fd36600461328d565b61217f565b6103b4610710366004613268565b600f60209081526000928352604080842090915290825290205481565b6103d561073b36600461328d565b6122ba565b6103d561074e366004613016565b6122fa565b6103d561076136600461341f565b61236e565b61033a610774366004613016565b600c602052600090815260409020546001600160a01b031681565b6103b461079d3660046131fd565b60126020526000908152604090205481565b6103d56107bd366004613457565b6123e0565b60005b8251811015610873578281815181106107e0576107e06134b3565b60200260200101516001600160a01b03166331279d3d33848481518110610809576108096134b3565b60200260200101516040518363ffffffff1660e01b815260040161082e92919061350d565b600060405180830381600087803b15801561084857600080fd5b505af115801561085c573d6000803e3d6000fd5b50505050808061086b90613547565b9150506107c5565b505050565b600081815260126020526040902054819062093a806108978142613562565b6108a19190613584565b116108f35760405162461bcd60e51b815260206004820152601e60248201527f544f4b454e5f414c52454144595f564f5445445f544849535f45504f4348000060448201526064015b60405180910390fd5b60005460405163430c208160e01b815233600482015260248101849052620100009091046001600160a01b03169063430c20819060440160206040518083038186803b15801561094257600080fd5b505afa158015610956573d6000803e3d6000fd5b505050506040513d601f19601f8201168201806040525081019061097a91906135a3565b6109c65760405162461bcd60e51b815260206004820152601a60248201527f4e65697468657220617070726f766564206e6f72206f776e657200000000000060448201526064016108ea565b60008281526012602052604090204290556109e0826125f7565b60005460405163c1f0fb9f60e01b815260048101849052620100009091046001600160a01b03169063c1f0fb9f90602401600060405180830381600087803b158015610a2b57600080fd5b505af1158015610a3f573d6000803e3d6000fd5b505050505050565b600081815260106020908152604080832080548251818502810185019093528083529192909190830182828015610aa757602002820191906000526020600020905b81546001600160a01b03168152600190910190602001808311610a89575b5050505050905060008151905060008167ffffffffffffffff811115610acf57610acf61303a565b604051908082528060200260200182016040528015610af8578160200160208202803683370190505b50905060005b82811015610b8557600f60008681526020019081526020016000206000858381518110610b2d57610b2d6134b3565b60200260200101516001600160a01b03166001600160a01b0316815260200190815260200160002054828281518110610b6857610b686134b3565b602090810291909101015280610b7d81613547565b915050610afe565b50610b9184848361289e565b50505050565b6005546001600160a01b03163314610bde5760405162461bcd60e51b815260206004820152600a6024820152692737ba1036b4b73a32b960b11b60448201526064016108ea565b60005b8251811015610c1e57610c0c838281518110610bff57610bff6134b3565b6020026020010151612cf8565b80610c1681613547565b915050610be1565b50600580546001600160a01b0319166001600160a01b039290921691909117905550565b600254610c5a906001600160a01b0316333084612da4565b600854600090610c7283670de0b6b3a7640000613584565b610c7c9190613562565b90508015610c9c578060176000828254610c9691906135c5565b90915550505b6002546040518381526001600160a01b039091169033907ff70d5c697de7ea828df48e5c4573cb2194c659f1901f70110c52b066dcf50826906020015b60405180910390a35050565b3360009081526013602052604090205460ff16610d145760405162461bcd60e51b81526004016108ea906135dd565b8115610d7e57600054604051634c35bec560e11b815260048101849052620100009091046001600160a01b03169063986b7d8a90602401600060405180830381600087803b158015610d6557600080fd5b505af1158015610d79573d6000803e3d6000fd5b505050505b60405182815233906001600160a01b038316907fae268d9aab12f3605f58efd74fd3801fa812b03fdb44317eb70f46dff0e19e2290602001610cd9565b600954610dca906000906112dc565b565b600954610dca9060009061176a565b60005b8151811015610e1b57610e09828281518110610dfc57610dfc6134b3565b6020026020010151610e1f565b80610e1381613547565b915050610dde565b5050565b60165460ff1615610e635760405162461bcd60e51b815260206004820152600e60248201526d4e6f2072652d656e7472616e637960901b60448201526064016108ea565b6016805460ff191660011790556005546040805163ed29fc1160e01b815290516001600160a01b039092169163ed29fc11916004808201926020929091908290030181600087803b158015610eb757600080fd5b505af1158015610ecb573d6000803e3d6000fd5b505050506040513d601f19601f82011682018060405250810190610eef9190613600565b50610ef981612ece565b6001600160a01b0381811660008181526019602052604090819020546002549151634cde602960e11b81529190931660048201526399bcc0529060240160206040518083038186803b158015610f4e57600080fd5b505afa158015610f62573d6000803e3d6000fd5b505050506040513d601f19601f82011682018060405250810190610f869190613600565b81118015610fa057506000610f9e62093a8083613562565b115b1561105d576001600160a01b0382811660008181526019602052604080822091909155600254905163b66503cf60e01b815292166004830152602482018390529063b66503cf90604401600060405180830381600087803b15801561100457600080fd5b505af1158015611018573d6000803e3d6000fd5b50506040518381526001600160a01b03851692503391507f4fa9693cae526341d334e2862ca2413b2e503f1266255f9e0869fb36e6d89b179060200160405180910390a35b50506016805460ff19169055565b60005460405163430c208160e01b815233600482015260248101839052620100009091046001600160a01b03169063430c20819060440160206040518083038186803b1580156110ba57600080fd5b505afa1580156110ce573d6000803e3d6000fd5b505050506040513d601f19601f820116820180604052508101906110f291906135a3565b6110fb57600080fd5b60005b8351811015610b9157838181518110611119576111196134b3565b60200260200101516001600160a01b031663a7852afa83858481518110611142576111426134b3565b60200260200101516040518363ffffffff1660e01b8152600401611167929190613619565b600060405180830381600087803b15801561118157600080fd5b505af1158015611195573d6000803e3d6000fd5b5050505080806111a490613547565b9150506110fe565b3360009081526013602052604090205460ff166111db5760405162461bcd60e51b81526004016108ea906135dd565b3360009081526015602052604090205460ff166112295760405162461bcd60e51b815260206004820152600c60248201526b6b696c6c656420676175676560a01b60448201526064016108ea565b81156112935760005460405163fbd3a29d60e01b815260048101849052620100009091046001600160a01b03169063fbd3a29d90602401600060405180830381600087803b15801561127a57600080fd5b505af115801561128e573d6000803e3d6000fd5b505050505b60405182815233906001600160a01b038316907f60940192810a6fb3bce3fd3e2e3a13fd6ccc7605e963fb87ee971aba829989bd90602001610cd9565b6112d981612ece565b50565b815b8181101561087357611330600a600060098481548110611300576113006134b3565b60009182526020808320909101546001600160a01b03908116845290830193909352604090910190205416610e1f565b8061133a81613547565b9150506112de565b60005460405163430c208160e01b815233600482015260248101839052620100009091046001600160a01b03169063430c20819060440160206040518083038186803b15801561139157600080fd5b505afa1580156113a5573d6000803e3d6000fd5b505050506040513d601f19601f820116820180604052508101906113c991906135a3565b6113d257600080fd5b60005b8351811015610b91578381815181106113f0576113f06134b3565b60200260200101516001600160a01b031663a7852afa83858481518110611419576114196134b3565b60200260200101516040518363ffffffff1660e01b815260040161143e929190613619565b600060405180830381600087803b15801561145857600080fd5b505af115801561146c573d6000803e3d6000fd5b50505050808061147b90613547565b9150506113d5565b600085815260126020526040902054859062093a806114a28142613562565b6114ac9190613584565b116114f95760405162461bcd60e51b815260206004820152601e60248201527f544f4b454e5f414c52454144595f564f5445445f544849535f45504f4348000060448201526064016108ea565b60005460405163430c208160e01b815233600482015260248101889052620100009091046001600160a01b03169063430c20819060440160206040518083038186803b15801561154857600080fd5b505afa15801561155c573d6000803e3d6000fd5b505050506040513d601f19601f8201168201806040525081019061158091906135a3565b61158957600080fd5b83821461159557600080fd5b60008681526012602090815260409182902042905581518682028181018301909352868152610a3f9289928991899182919085019084908082843760009201919091525050604080516020808a0282810182019093528982529093508992508891829185019084908082843760009201919091525061289e92505050565b6007546001600160a01b031633146116655760405162461bcd60e51b81526020600482015260156024820152741b9bdd08195b595c99d95b98de4818dbdd5b98da5b605a1b60448201526064016108ea565b6001600160a01b03811660009081526015602052604090205460ff166116c25760405162461bcd60e51b815260206004820152601260248201527119d85d59d948185b1c9958591e481919585960721b60448201526064016108ea565b6001600160a01b0381166000818152601560209081526040808320805460ff191690556019909152808220829055517f04a5d3f5d80d22d9345acc80618f4a4e7e663cf9e1aed23b57d975acec002ba79190a250565b6006546001600160a01b031633146117615760405162461bcd60e51b815260206004820152600c60248201526b2737ba1033b7bb32b93737b960a11b60448201526064016108ea565b6112d981612cf8565b815b81811015610873576117be600a60006009848154811061178e5761178e6134b3565b60009182526020808320909101546001600160a01b03908116845290830193909352604090910190205416612ece565b806117c881613547565b91505061176c565b6007546001600160a01b031633146118225760405162461bcd60e51b81526020600482015260156024820152741b9bdd08195b595c99d95b98de4818dbdd5b98da5b605a1b60448201526064016108ea565b6001600160a01b03811660009081526015602052604090205460ff16156118815760405162461bcd60e51b8152602060048201526013602482015272676175676520616c726561647920616c69766560681b60448201526064016108ea565b6001600160a01b038116600081815260156020526040808220805460ff19166001179055517fed18e9faa3dccfd8aa45f69c4de40546b2ca9cccc4538a2323531656516db1aa9190a250565b6001600160a01b038181166000908152600a6020526040812054909116156119205760405162461bcd60e51b815260206004820152600660248201526565786973747360d01b60448201526064016108ea565b60408051600380825260808201909252600091602082016060803683375050604080516002808252606082018352939450600093909250906020830190803683370190505060015460405163e5e31b1360e01b81526001600160a01b0387811660048301529293506000929091169063e5e31b139060240160206040518083038186803b1580156119b057600080fd5b505afa1580156119c4573d6000803e3d6000fd5b505050506040513d601f19601f820116820180604052508101906119e891906135a3565b90506000808215611b9f57866001600160a01b0316639d63848a6040518163ffffffff1660e01b81526004016040805180830381600087803b158015611a2d57600080fd5b505af1158015611a41573d6000803e3d6000fd5b505050506040513d601f19601f82011682018060405250810190611a659190613632565b80925081935050508185600081518110611a8157611a816134b3565b60200260200101906001600160a01b031690816001600160a01b0316815250508085600181518110611ab557611ab56134b3565b60200260200101906001600160a01b031690816001600160a01b0316815250508184600081518110611ae957611ae96134b3565b60200260200101906001600160a01b031690816001600160a01b0316815250508084600181518110611b1d57611b1d6134b3565b6001600160a01b039283166020918202929092010152600254811690831614801590611b5757506002546001600160a01b03828116911614155b15611b9f576002805486516001600160a01b039091169187918110611b7e57611b7e6134b3565b60200260200101906001600160a01b031690816001600160a01b0316815250505b6006546001600160a01b03163314611c625782611be75760405162461bcd60e51b81526020600482015260066024820152650857dc1bdbdb60d21b60448201526064016108ea565b6001600160a01b03821660009081526014602052604090205460ff168015611c2757506001600160a01b03811660009081526014602052604090205460ff165b611c625760405162461bcd60e51b815260206004820152600c60248201526b085dda1a5d195b1a5cdd195960a21b60448201526064016108ea565b60048054604051632a26b9eb60e01b81526000926001600160a01b0390921691632a26b9eb91611c9491899101613661565b602060405180830381600087803b158015611cae57600080fd5b505af1158015611cc2573d6000803e3d6000fd5b505050506040513d601f19601f82011682018060405250810190611ce69190613674565b600480546040516319217c3160e21b81529293506000926001600160a01b0390911691636485f0c491611d1b918b9101613661565b602060405180830381600087803b158015611d3557600080fd5b505af1158015611d49573d6000803e3d6000fd5b505050506040513d601f19601f82011682018060405250810190611d6d9190613674565b90506000600360009054906101000a90046001600160a01b03166001600160a01b0316630bc25f4f8b8585600060029054906101000a90046001600160a01b03168b8e6040518763ffffffff1660e01b8152600401611dd196959493929190613691565b602060405180830381600087803b158015611deb57600080fd5b505af1158015611dff573d6000803e3d6000fd5b505050506040513d601f19601f82011682018060405250810190611e239190613674565b60025460405163095ea7b360e01b81526001600160a01b038084166004830152600019602483015292935091169063095ea7b390604401602060405180830381600087803b158015611e7457600080fd5b505af1158015611e88573d6000803e3d6000fd5b505050506040513d601f19601f82011682018060405250810190611eac91906135a3565b506001600160a01b038181166000818152600c6020908152604080832080546001600160a01b03199081168a881617909155600d835281842080548216898816179055948f16808452600a83528184208054871686179055938352600b8252808320805490951690931790935560138352818120805460ff19908116600190811790925560159094529190208054909216179055611f4981612ece565b600980546001810182556000919091527f6e1540171b6c0c960b71a7020d9f60077f6af931a8bbf590da0223dacf75c7af0180546001600160a01b0319166001600160a01b038c8116918217909255604080513381528684166020820152919285811692908516917fa4d97e9e7c65249b4cd01acb82add613adea98af32daf092366982f0a0d4e453910160405180910390a49998505050505050505050565b3360009081526013602052604090205460ff166120185760405162461bcd60e51b81526004016108ea906135dd565b3360009081526015602052604090205460ff166120665760405162461bcd60e51b815260206004820152600c60248201526b6b696c6c656420676175676560a01b60448201526064016108ea565b604080518481526020810183905233916001600160a01b038516917fdcbc1c05240f31ff3ad067ef1ee35ce4997762752e3a095284754544f4c709d791015b60405180910390a3505050565b601060205281600052604060002081815481106120ce57600080fd5b6000918252602090912001546001600160a01b03169150829050565b600981815481106120fa57600080fd5b6000918252602090912001546001600160a01b0316905081565b6006546001600160a01b0316331461215d5760405162461bcd60e51b815260206004820152600c60248201526b2737ba1033b7bb32b93737b960a11b60448201526064016108ea565b600680546001600160a01b0319166001600160a01b0392909216919091179055565b60005b8151811015610e1b5781818151811061219d5761219d6134b3565b60200260200101516001600160a01b031663e57482136040518163ffffffff1660e01b815260040160206040518083038186803b1580156121dd57600080fd5b505afa1580156121f1573d6000803e3d6000fd5b505050506040513d601f19601f8201168201806040525081019061221591906135a3565b156122a85781818151811061222c5761222c6134b3565b60200260200101516001600160a01b031663d294f0936040518163ffffffff1660e01b81526004016040805180830381600087803b15801561226d57600080fd5b505af1158015612281573d6000803e3d6000fd5b505050506040513d601f19601f820116820180604052508101906122a591906136e1565b50505b806122b281613547565b915050612182565b60005b8151811015610e1b576122e88282815181106122db576122db6134b3565b6020026020010151612ece565b806122f281613547565b9150506122bd565b6007546001600160a01b0316331461234c5760405162461bcd60e51b8152602060048201526015602482015274139bdd08195b595c99d95b98de4818dbdd5b98da5b605a1b60448201526064016108ea565b600780546001600160a01b0319166001600160a01b0392909216919091179055565b3360009081526013602052604090205460ff1661239d5760405162461bcd60e51b81526004016108ea906135dd565b604080518481526020810183905233916001600160a01b038516917ff341246adaac6f497bc2a656f546ab9e182111d630394f0c57c710a59a2cb56791016120a5565b600054610100900460ff16158080156124005750600054600160ff909116105b8061241a5750303b15801561241a575060005460ff166001145b61247d5760405162461bcd60e51b815260206004820152602e60248201527f496e697469616c697a61626c653a20636f6e747261637420697320616c72656160448201526d191e481a5b9a5d1a585b1a5e995960921b60648201526084016108ea565b6000805460ff1916600117905580156124a0576000805461ff0019166101001790555b6000805462010000600160b01b031916620100006001600160a01b0388811691820292909217909255600180546001600160a01b03191691871691909117905560408051637e062a3560e11b8152905163fc0c546a91600480820192602092909190829003018186803b15801561251657600080fd5b505afa15801561252a573d6000803e3d6000fd5b505050506040513d601f19601f8201168201806040525081019061254e9190613674565b600280546001600160a01b03199081166001600160a01b03938416179091556003805482168684161790556004805482169285169290921790915560058054339083168117909155600680548316821790556007805490921617905580156125f0576000805461ff0019169055604051600181527f7f26b83ff96e1f2b6a682f133852f6798a09c465da95921460cefb38474024989060200160405180910390a15b5050505050565b600081815260106020526040812080549091805b82811015612862576000848281548110612627576126276134b3565b6000918252602080832090910154888352600f825260408084206001600160a01b0390921680855291909252912054909150801561284d576001600160a01b038083166000908152600a60205260409020546126839116612ece565b6001600160a01b0382166000908152600e6020526040812080548392906126ab908490613705565b90915550506000878152600f602090815260408083206001600160a01b0386168452909152812080548392906126e2908490613705565b90915550508015612806576001600160a01b038281166000908152600a602090815260408083205484168352600c9091529081902054905163278afc8b60e21b815260048101849052602481018a9052911690639e2bf22c90604401600060405180830381600087803b15801561275857600080fd5b505af115801561276c573d6000803e3d6000fd5b505050506001600160a01b038281166000908152600a602090815260408083205484168352600d9091529081902054905163278afc8b60e21b815260048101849052602481018a9052911690639e2bf22c90604401600060405180830381600087803b1580156127db57600080fd5b505af11580156127ef573d6000803e3d6000fd5b5050505080846127ff91906135c5565b9350612813565b6128108185613705565b93505b60408051888152602081018390527fa9f3ca5f8a9e1580edb2741e0ba560084ec72e0067ba3423f9e9327a176882db910160405180910390a15b5050808061285a90613547565b91505061260b565b5080600860008282546128759190613705565b9091555050600084815260116020908152604080832083905560109091528120610b9191612fcf565b6128a7836125f7565b8151600080546040516339f890b560e21b815260048101879052620100009091046001600160a01b03169063e7e242d49060240160206040518083038186803b1580156128f357600080fd5b505afa158015612907573d6000803e3d6000fd5b505050506040513d601f19601f8201168201806040525081019061292b9190613600565b90506000806000805b858110156129755786818151811061294e5761294e6134b3565b60200260200101518461296191906135c5565b93508061296d81613547565b915050612934565b5060005b85811015612c5b576000888281518110612995576129956134b3565b6020908102919091018101516001600160a01b038082166000908152600a84526040808220549092168082526013909452205490925060ff1615612c4657600086888b86815181106129e9576129e96134b3565b60200260200101516129fb9190613584565b612a059190613562565b60008d8152600f602090815260408083206001600160a01b038816845290915290205490915015612a3557600080fd5b80612a3f57600080fd5b612a4882612ece565b60008c815260106020908152604080832080546001810182559084528284200180546001600160a01b0319166001600160a01b0388169081179091558352600e90915281208054839290612a9d9084906135c5565b909155505060008c8152600f602090815260408083206001600160a01b038716845290915281208054839290612ad49084906135c5565b90915550506001600160a01b038083166000908152600c60205260409081902054905163f320772360e01b815260048101849052602481018f905291169063f320772390604401600060405180830381600087803b158015612b3557600080fd5b505af1158015612b49573d6000803e3d6000fd5b50505050600d6000836001600160a01b03166001600160a01b0316815260200190815260200160002060009054906101000a90046001600160a01b03166001600160a01b031663f3207723828e6040518363ffffffff1660e01b8152600401612bbc929190918252602082015260400190565b600060405180830381600087803b158015612bd657600080fd5b505af1158015612bea573d6000803e3d6000fd5b505050508085612bfa91906135c5565b9450612c0681876135c5565b604080518e81526020810184905291975033917fea66f58e474bc09f580000e81f31b334d171db387d0c6098ba47bd897741679b910160405180910390a2505b50508080612c5390613547565b915050612979565b508015612cc65760005460405163fd4a77f160e01b8152600481018a9052620100009091046001600160a01b03169063fd4a77f190602401600060405180830381600087803b158015612cad57600080fd5b505af1158015612cc1573d6000803e3d6000fd5b505050505b8160086000828254612cd891906135c5565b909155505060009788526011602052604090972096909655505050505050565b6001600160a01b03811660009081526014602052604090205460ff1615612d575760405162461bcd60e51b8152602060048201526013602482015272105b1c9958591e481dda1a5d195b1a5cdd1959606a1b60448201526064016108ea565b6001600160a01b038116600081815260146020526040808220805460ff191660011790555133917f6661a7108aecd07864384529117d96c319c1163e3010c01390f6b704726e07de91a350565b6000846001600160a01b03163b11612df55760405162461bcd60e51b81526020600482015260146024820152732b37ba32b91d1034b73b30b634b2103a37b5b2b760611b60448201526064016108ea565b604080516001600160a01b0385811660248301528481166044830152606480830185905283518084039091018152608490920183526020820180516001600160e01b03166323b872dd60e01b1790529151600092839290881691612e59919061371c565b6000604051808303816000865af19150503d8060008114612e96576040519150601f19603f3d011682016040523d82523d6000602084013e612e9b565b606091505b5091509150818015612ec5575080511580612ec5575080806020019051810190612ec591906135a3565b610a3f57600080fd5b6001600160a01b038082166000908152600b6020908152604080832054909316808352600e909152919020548015612fae576001600160a01b038316600090815260186020526040812080546017549182905591612f2c8383613705565b90508015610a3f576000670de0b6b3a7640000612f498387613584565b612f539190613562565b6001600160a01b03881660009081526015602052604090205490915060ff1615612fa5576001600160a01b03871660009081526019602052604081208054839290612f9f9084906135c5565b90915550505b50505050505050565b6017546001600160a01b038416600090815260186020526040902055505050565b50805460008255906000526020600020908101906112d991905b80821115612ffd5760008155600101612fe9565b5090565b6001600160a01b03811681146112d957600080fd5b60006020828403121561302857600080fd5b813561303381613001565b9392505050565b634e487b7160e01b600052604160045260246000fd5b604051601f8201601f1916810167ffffffffffffffff811182821017156130795761307961303a565b604052919050565b600067ffffffffffffffff82111561309b5761309b61303a565b5060051b60200190565b600082601f8301126130b657600080fd5b813560206130cb6130c683613081565b613050565b82815260059290921b840181019181810190868411156130ea57600080fd5b8286015b8481101561310e57803561310181613001565b83529183019183016130ee565b509695505050505050565b600082601f83011261312a57600080fd5b8135602061313a6130c683613081565b82815260059290921b8401810191818101908684111561315957600080fd5b8286015b8481101561310e57803567ffffffffffffffff81111561317d5760008081fd5b61318b8986838b01016130a5565b84525091830191830161315d565b600080604083850312156131ac57600080fd5b823567ffffffffffffffff808211156131c457600080fd5b6131d0868387016130a5565b935060208501359150808211156131e657600080fd5b506131f385828601613119565b9150509250929050565b60006020828403121561320f57600080fd5b5035919050565b6000806040838503121561322957600080fd5b823567ffffffffffffffff81111561324057600080fd5b61324c858286016130a5565b925050602083013561325d81613001565b809150509250929050565b6000806040838503121561327b57600080fd5b82359150602083013561325d81613001565b60006020828403121561329f57600080fd5b813567ffffffffffffffff8111156132b657600080fd5b6132c2848285016130a5565b949350505050565b6000806000606084860312156132df57600080fd5b833567ffffffffffffffff808211156132f757600080fd5b613303878388016130a5565b9450602086013591508082111561331957600080fd5b5061332686828701613119565b925050604084013590509250925092565b6000806040838503121561334a57600080fd5b50508035926020909101359150565b60008083601f84011261336b57600080fd5b50813567ffffffffffffffff81111561338357600080fd5b6020830191508360208260051b850101111561339e57600080fd5b9250929050565b6000806000806000606086880312156133bd57600080fd5b85359450602086013567ffffffffffffffff808211156133dc57600080fd5b6133e889838a01613359565b9096509450604088013591508082111561340157600080fd5b5061340e88828901613359565b969995985093965092949392505050565b60008060006060848603121561343457600080fd5b83359250602084013561344681613001565b929592945050506040919091013590565b6000806000806080858703121561346d57600080fd5b843561347881613001565b9350602085013561348881613001565b9250604085013561349881613001565b915060608501356134a881613001565b939692955090935050565b634e487b7160e01b600052603260045260246000fd5b600081518084526020808501945080840160005b838110156135025781516001600160a01b0316875295820195908201906001016134dd565b509495945050505050565b6001600160a01b03831681526040602082018190526000906132c2908301846134c9565b634e487b7160e01b600052601160045260246000fd5b600060001982141561355b5761355b613531565b5060010190565b60008261357f57634e487b7160e01b600052601260045260246000fd5b500490565b600081600019048311821515161561359e5761359e613531565b500290565b6000602082840312156135b557600080fd5b8151801515811461303357600080fd5b600082198211156135d8576135d8613531565b500190565b6020808252600990820152686e6f7420676175676560b81b604082015260600190565b60006020828403121561361257600080fd5b5051919050565b8281526040602082015260006132c260408301846134c9565b6000806040838503121561364557600080fd5b825161365081613001565b602084015190925061325d81613001565b60208152600061303360208301846134c9565b60006020828403121561368657600080fd5b815161303381613001565b6001600160a01b0387811682528681166020830152858116604083015284166060820152821515608082015260c060a082018190526000906136d5908301846134c9565b98975050505050505050565b600080604083850312156136f457600080fd5b505080516020909101519092909150565b60008282101561371757613717613531565b500390565b6000825160005b8181101561373d5760208186018101518583015201613723565b8181111561374c576000828501525b50919091019291505056fea26469706673582212202cfec6d4e8c0374d26d0706903a8130c1462cc6469094c0516cf538de28dee5164736f6c63430008090033",
    "sourcePath": "/home/kei/Workspace/Development/equalizer-exchange/v1-core/contracts/Voter.sol",
    "compiler": {
        "name": "solc",
        "version": "0.8.9+commit.e5eed63a"
    },
    "functionHashes": {
        "_ve()": "8dd598fb",
        "attachTokenToGauge(uint256,address)": "698473e3",
        "bribefactory()": "38752a9d",
        "claimBribes(address[],address[][],uint256)": "7715ee75",
        "claimFees(address[],address[][],uint256)": "666256aa",
        "claimRewards(address[],address[][])": "20b1cb6f",
        "claimable(address)": "402914f5",
        "createGauge(address)": "a5f4301e",
        "detachTokenFromGauge(uint256,address)": "411b1f77",
        "distribute()": "e4fc6b6d",
        "distribute(address)": "63453ae1",
        "distribute(address[])": "6138889b",
        "distribute(uint256,uint256)": "7625391a",
        "distributeFees(address[])": "c527ee1f",
        "distro()": "47b3c6ba",
        "emergencyCouncil()": "7778960e",
        "emitDeposit(uint256,address,uint256)": "a61c713a",
        "emitWithdraw(uint256,address,uint256)": "ea94ee44",
        "external_bribes(address)": "ae21c4cb",
        "factory()": "c45a0155",
        "gaugefactory()": "68c3acb3",
        "gauges(address)": "b9a09fd5",
        "governor()": "0c340a24",
        "initialSetup(address[],address)": "35ddba1f",
        "initialize(address,address,address,address)": "f8c8765e",
        "internal_bribes(address)": "eae40f26",
        "isAlive(address)": "1703e5f9",
        "isGauge(address)": "aa79979b",
        "isWhitelisted(address)": "3af32abf",
        "killGauge(address)": "992a7933",
        "lastVoted(uint256)": "f3594be0",
        "length()": "1f7b6d32",
        "minter()": "07546172",
        "notifyRewardAmount(uint256)": "3c6b16ab",
        "poke(uint256)": "32145f90",
        "poolForGauge(address)": "06d6a1b2",
        "poolVote(uint256,uint256)": "a86a366d",
        "pools(uint256)": "ac4afa38",
        "reset(uint256)": "310bd74b",
        "reviveGauge(address)": "9f06247b",
        "setEmergencyCouncil(address)": "e586875f",
        "setGovernor(address)": "c42cf535",
        "totalWeight()": "96c82e57",
        "updateAll()": "53d78693",
        "updateFor(address[])": "d560b0d7",
        "updateForRange(uint256,uint256)": "9b6a9d72",
        "updateGauge(address)": "6ecbe38a",
        "usedWeights(uint256)": "79e93824",
        "vote(uint256,address[],uint256[])": "7ac09bf7",
        "votes(uint256,address)": "d23254b4",
        "weights(address)": "a7cac846",
        "whitelist(address)": "9b19251a"
    },
    "gasEstimates": {
        "creation": {
            "codeDepositCost": "2844200",
            "executionCost": "3107",
            "totalCost": "2847307"
        },
        "external": {
            "_ve()": "2405",
            "attachTokenToGauge(uint256,address)": "infinite",
            "bribefactory()": "2394",
            "claimBribes(address[],address[][],uint256)": "infinite",
            "claimFees(address[],address[][],uint256)": "infinite",
            "claimRewards(address[],address[][])": "infinite",
            "claimable(address)": "2647",
            "createGauge(address)": "infinite",
            "detachTokenFromGauge(uint256,address)": "infinite",
            "distribute()": "infinite",
            "distribute(address)": "infinite",
            "distribute(address[])": "infinite",
            "distribute(uint256,uint256)": "infinite",
            "distributeFees(address[])": "infinite",
            "distro()": "infinite",
            "emergencyCouncil()": "2437",
            "emitDeposit(uint256,address,uint256)": "6960",
            "emitWithdraw(uint256,address,uint256)": "4734",
            "external_bribes(address)": "2586",
            "factory()": "2437",
            "gaugefactory()": "2394",
            "gauges(address)": "2608",
            "governor()": "2417",
            "initialSetup(address[],address)": "infinite",
            "initialize(address,address,address,address)": "infinite",
            "internal_bribes(address)": "2629",
            "isAlive(address)": "2638",
            "isGauge(address)": "2636",
            "isWhitelisted(address)": "2615",
            "killGauge(address)": "35277",
            "lastVoted(uint256)": "2548",
            "length()": "2416",
            "minter()": "2395",
            "notifyRewardAmount(uint256)": "infinite",
            "poke(uint256)": "infinite",
            "poolForGauge(address)": "2588",
            "poolVote(uint256,uint256)": "4783",
            "pools(uint256)": "4736",
            "reset(uint256)": "infinite",
            "reviveGauge(address)": "30170",
            "setEmergencyCouncil(address)": "26816",
            "setGovernor(address)": "26794",
            "totalWeight()": "2385",
            "updateAll()": "infinite",
            "updateFor(address[])": "infinite",
            "updateForRange(uint256,uint256)": "infinite",
            "updateGauge(address)": "infinite",
            "usedWeights(uint256)": "2571",
            "vote(uint256,address[],uint256[])": "infinite",
            "votes(uint256,address)": "2771",
            "weights(address)": "2580",
            "whitelist(address)": "infinite"
        },
        "internal": {
            "_reset(uint256)": "infinite",
            "_safeTransferFrom(address,address,address,uint256)": "infinite",
            "_updateFor(address)": "57691",
            "_vote(uint256,address[] memory,uint256[] memory)": "infinite",
            "_whitelist(address)": "infinite"
        }
    }
}