{
    "contractName": "PairFactory",
    "abi": [
        {
            "anonymous": false,
            "inputs": [
                {
                    "indexed": false,
                    "internalType": "uint8",
                    "name": "version",
                    "type": "uint8"
                }
            ],
            "name": "Initialized",
            "type": "event"
        },
        {
            "anonymous": false,
            "inputs": [
                {
                    "indexed": true,
                    "internalType": "address",
                    "name": "token0",
                    "type": "address"
                },
                {
                    "indexed": true,
                    "internalType": "address",
                    "name": "token1",
                    "type": "address"
                },
                {
                    "indexed": false,
                    "internalType": "bool",
                    "name": "stable",
                    "type": "bool"
                },
                {
                    "indexed": false,
                    "internalType": "address",
                    "name": "pair",
                    "type": "address"
                },
                {
                    "indexed": false,
                    "internalType": "uint256",
                    "name": "",
                    "type": "uint256"
                }
            ],
            "name": "PairCreated",
            "type": "event"
        },
        {
            "inputs": [],
            "name": "MAX_FEE",
            "outputs": [
                {
                    "internalType": "uint256",
                    "name": "",
                    "type": "uint256"
                }
            ],
            "stateMutability": "view",
            "type": "function"
        },
        {
            "inputs": [],
            "name": "acceptFeeManager",
            "outputs": [],
            "stateMutability": "nonpayable",
            "type": "function"
        },
        {
            "inputs": [],
            "name": "acceptPauser",
            "outputs": [],
            "stateMutability": "nonpayable",
            "type": "function"
        },
        {
            "inputs": [
                {
                    "internalType": "uint256",
                    "name": "",
                    "type": "uint256"
                }
            ],
            "name": "allPairs",
            "outputs": [
                {
                    "internalType": "address",
                    "name": "",
                    "type": "address"
                }
            ],
            "stateMutability": "view",
            "type": "function"
        },
        {
            "inputs": [],
            "name": "allPairsLength",
            "outputs": [
                {
                    "internalType": "uint256",
                    "name": "",
                    "type": "uint256"
                }
            ],
            "stateMutability": "view",
            "type": "function"
        },
        {
            "inputs": [
                {
                    "internalType": "address",
                    "name": "tokenA",
                    "type": "address"
                },
                {
                    "internalType": "address",
                    "name": "tokenB",
                    "type": "address"
                },
                {
                    "internalType": "bool",
                    "name": "stable",
                    "type": "bool"
                }
            ],
            "name": "createPair",
            "outputs": [
                {
                    "internalType": "address",
                    "name": "pair",
                    "type": "address"
                }
            ],
            "stateMutability": "nonpayable",
            "type": "function"
        },
        {
            "inputs": [],
            "name": "feeManager",
            "outputs": [
                {
                    "internalType": "address",
                    "name": "",
                    "type": "address"
                }
            ],
            "stateMutability": "view",
            "type": "function"
        },
        {
            "inputs": [
                {
                    "internalType": "bool",
                    "name": "_stable",
                    "type": "bool"
                }
            ],
            "name": "getFee",
            "outputs": [
                {
                    "internalType": "uint256",
                    "name": "",
                    "type": "uint256"
                }
            ],
            "stateMutability": "view",
            "type": "function"
        },
        {
            "inputs": [],
            "name": "getInitializable",
            "outputs": [
                {
                    "internalType": "address",
                    "name": "",
                    "type": "address"
                },
                {
                    "internalType": "address",
                    "name": "",
                    "type": "address"
                },
                {
                    "internalType": "bool",
                    "name": "",
                    "type": "bool"
                }
            ],
            "stateMutability": "view",
            "type": "function"
        },
        {
            "inputs": [
                {
                    "internalType": "address",
                    "name": "",
                    "type": "address"
                },
                {
                    "internalType": "address",
                    "name": "",
                    "type": "address"
                },
                {
                    "internalType": "bool",
                    "name": "",
                    "type": "bool"
                }
            ],
            "name": "getPair",
            "outputs": [
                {
                    "internalType": "address",
                    "name": "",
                    "type": "address"
                }
            ],
            "stateMutability": "view",
            "type": "function"
        },
        {
            "inputs": [],
            "name": "initialize",
            "outputs": [],
            "stateMutability": "nonpayable",
            "type": "function"
        },
        {
            "inputs": [
                {
                    "internalType": "address",
                    "name": "",
                    "type": "address"
                }
            ],
            "name": "isPair",
            "outputs": [
                {
                    "internalType": "bool",
                    "name": "",
                    "type": "bool"
                }
            ],
            "stateMutability": "view",
            "type": "function"
        },
        {
            "inputs": [],
            "name": "isPaused",
            "outputs": [
                {
                    "internalType": "bool",
                    "name": "",
                    "type": "bool"
                }
            ],
            "stateMutability": "view",
            "type": "function"
        },
        {
            "inputs": [],
            "name": "pairCodeHash",
            "outputs": [
                {
                    "internalType": "bytes32",
                    "name": "",
                    "type": "bytes32"
                }
            ],
            "stateMutability": "pure",
            "type": "function"
        },
        {
            "inputs": [],
            "name": "pauser",
            "outputs": [
                {
                    "internalType": "address",
                    "name": "",
                    "type": "address"
                }
            ],
            "stateMutability": "view",
            "type": "function"
        },
        {
            "inputs": [],
            "name": "pendingFeeManager",
            "outputs": [
                {
                    "internalType": "address",
                    "name": "",
                    "type": "address"
                }
            ],
            "stateMutability": "view",
            "type": "function"
        },
        {
            "inputs": [],
            "name": "pendingPauser",
            "outputs": [
                {
                    "internalType": "address",
                    "name": "",
                    "type": "address"
                }
            ],
            "stateMutability": "view",
            "type": "function"
        },
        {
            "inputs": [
                {
                    "internalType": "bool",
                    "name": "_stable",
                    "type": "bool"
                },
                {
                    "internalType": "uint256",
                    "name": "_fee",
                    "type": "uint256"
                }
            ],
            "name": "setFee",
            "outputs": [],
            "stateMutability": "nonpayable",
            "type": "function"
        },
        {
            "inputs": [
                {
                    "internalType": "address",
                    "name": "_feeManager",
                    "type": "address"
                }
            ],
            "name": "setFeeManager",
            "outputs": [],
            "stateMutability": "nonpayable",
            "type": "function"
        },
        {
            "inputs": [
                {
                    "internalType": "bool",
                    "name": "_state",
                    "type": "bool"
                }
            ],
            "name": "setPause",
            "outputs": [],
            "stateMutability": "nonpayable",
            "type": "function"
        },
        {
            "inputs": [
                {
                    "internalType": "address",
                    "name": "_pauser",
                    "type": "address"
                }
            ],
            "name": "setPauser",
            "outputs": [],
            "stateMutability": "nonpayable",
            "type": "function"
        },
        {
            "inputs": [],
            "name": "stableFee",
            "outputs": [
                {
                    "internalType": "uint256",
                    "name": "",
                    "type": "uint256"
                }
            ],
            "stateMutability": "view",
            "type": "function"
        },
        {
            "inputs": [],
            "name": "volatileFee",
            "outputs": [
                {
                    "internalType": "uint256",
                    "name": "",
                    "type": "uint256"
                }
            ],
            "stateMutability": "view",
            "type": "function"
        }
    ],
    "bytecode": "608060405234801561001057600080fd5b50615196806100206000396000f3fe608060405234801561001057600080fd5b506004361061014d5760003560e01c80638a4fa0d2116100c3578063bedb86fb1161007c578063bedb86fb146102b5578063d0fb0203146102c8578063e1f76b44146102db578063e5e31b13146102ee578063eb13c4cf14610311578063f94c53c71461034957600080fd5b80638a4fa0d2146102425780639a7165e4146102555780639aab9248146102685780639fd0506d14610270578063b187bd261461028a578063bc063e1a146102ad57600080fd5b80635084ed03116101155780635084ed03146101c9578063512b45ea146101d2578063574f2ba3146101e55780636801cc30146101ed5780638129fc1c1461022757806382dfdce41461022f57600080fd5b8063167a6f90146101525780631e3dd18b1461015c5780632d88af4a1461018c57806340bbd7751461019f578063472d35b9146101b6575b600080fd5b61015a610351565b005b61016f61016a366004610b4f565b6103dd565b6040516001600160a01b0390911681526020015b60405180910390f35b61015a61019a366004610b84565b610407565b6101a860025481565b604051908152602001610183565b61015a6101c4366004610b84565b610486565b6101a860035481565b6101a86101e0366004610bb6565b6104f4565b6007546101a8565b61016f6101fb366004610bd1565b60066020908152600093845260408085208252928452828420905282529020546001600160a01b031681565b61015a61050d565b61016f61023d366004610bd1565b610657565b60055461016f906001600160a01b031681565b60015461016f906001600160a01b031681565b6101a8610938565b60005461016f90630100000090046001600160a01b031681565b60005461029d9062010000900460ff1681565b6040519015158152602001610183565b6101a8601e81565b61015a6102c3366004610bb6565b61096a565b60045461016f906001600160a01b031681565b61015a6102e9366004610c14565b6109e3565b61029d6102fc366004610b84565b60086020526000908152604090205460ff1681565b600954600a54604080516001600160a01b0393841681529282166020840152600160a01b90910460ff16151590820152606001610183565b61015a610ac4565b6001546001600160a01b031633146103b05760405162461bcd60e51b815260206004820181905260248201527f50616972466163746f72793a206e6f7420612070656e64696e6750617573657260448201526064015b60405180910390fd5b600154600080546301000000600160b81b0319166001600160a01b03909216630100000002919091179055565b600781815481106103ed57600080fd5b6000918252602090912001546001600160a01b0316905081565b600054630100000090046001600160a01b031633146104645760405162461bcd60e51b81526020600482015260196024820152782830b4b92330b1ba37b93c9d103737ba1030903830bab9b2b960391b60448201526064016103a7565b600180546001600160a01b0319166001600160a01b0392909216919091179055565b6004546001600160a01b031633146104d25760405162461bcd60e51b815260206004820152600f60248201526e3737ba103332b29036b0b730b3b2b960891b60448201526064016103a7565b600580546001600160a01b0319166001600160a01b0392909216919091179055565b60008161050357600354610507565b6002545b92915050565b600054610100900460ff161580801561052d5750600054600160ff909116105b806105475750303b158015610547575060005460ff166001145b6105aa5760405162461bcd60e51b815260206004820152602e60248201527f496e697469616c697a61626c653a20636f6e747261637420697320616c72656160448201526d191e481a5b9a5d1a585b1a5e995960921b60648201526084016103a7565b6000805460ff1916600117905580156105cd576000805461ff0019166101001790555b6000805462010000600160b81b031916336301000000810262ff0000191691909117909155600480546001600160a01b03191690911790556002805560146003558015610654576000805461ff0019169055604051600181527f7f26b83ff96e1f2b6a682f133852f6798a09c465da95921460cefb38474024989060200160405180910390a15b50565b6000826001600160a01b0316846001600160a01b031614156106a05760405162461bcd60e51b8152602060048201526002602482015261494160f01b60448201526064016103a7565b600080846001600160a01b0316866001600160a01b0316106106c35784866106c6565b85855b90925090506001600160a01b0382166107065760405162461bcd60e51b81526020600482015260026024820152615a4160f01b60448201526064016103a7565b6001600160a01b038281166000908152600660209081526040808320858516845282528083208815158452909152902054161561076a5760405162461bcd60e51b8152602060048201526002602482015261504560f01b60448201526064016103a7565b6040516bffffffffffffffffffffffff19606084811b8216602084015283901b16603482015284151560f81b604882015260009060490160408051601f19818403018152908290528051602090910120600a80546001600160a01b038087166001600160a01b03198b1515600160a01b0281166001600160a81b0319909416939093171790925560098054928816929091169190911790559150819061080f90610b42565b8190604051809103906000f590508015801561082f573d6000803e3d6000fd5b506001600160a01b0384811660008181526006602081815260408084208987168086529083528185208d15158087529084528286208054988a166001600160a01b0319998a16811790915582875294845282862087875284528286208187528452828620805489168617905560078054600181810183557fa66cc928b5edb82af9bd49922954155ab7b0942694bea4ce44661d9a8736c6889091018054909a1687179099558587526008855295839020805460ff1916909817909755935481519687529186019290925290840152929650907fc4805696c66d7cf352fc1d6bb633ad5ee82f6cb577c453024b6e0eb8306c6fc99060600160405180910390a35050509392505050565b60006040518060200161094a90610b42565b6020820181038252601f19601f8201166040525080519060200120905090565b600054630100000090046001600160a01b031633146109c75760405162461bcd60e51b81526020600482015260196024820152782830b4b92330b1ba37b93c9d103737ba1030903830bab9b2b960391b60448201526064016103a7565b60008054911515620100000262ff000019909216919091179055565b6004546001600160a01b03163314610a2f5760405162461bcd60e51b815260206004820152600f60248201526e3737ba103332b29036b0b730b3b2b960891b60448201526064016103a7565b601e811115610a6f5760405162461bcd60e51b815260206004820152600c60248201526b0cccaca40e8dede40d0d2ced60a31b60448201526064016103a7565b80610ab25760405162461bcd60e51b8152602060048201526013602482015272666565206d757374206265206e6f6e7a65726f60681b60448201526064016103a7565b8115610abe5760025550565b60035550565b6005546001600160a01b03163314610b1e5760405162461bcd60e51b815260206004820152601760248201527f6e6f742070656e64696e6720666565206d616e6167657200000000000000000060448201526064016103a7565b600554600480546001600160a01b0319166001600160a01b03909216919091179055565b61452280610c3f83390190565b600060208284031215610b6157600080fd5b5035919050565b80356001600160a01b0381168114610b7f57600080fd5b919050565b600060208284031215610b9657600080fd5b610b9f82610b68565b9392505050565b80358015158114610b7f57600080fd5b600060208284031215610bc857600080fd5b610b9f82610ba6565b600080600060608486031215610be657600080fd5b610bef84610b68565b9250610bfd60208501610b68565b9150610c0b60408501610ba6565b90509250925092565b60008060408385031215610c2757600080fd5b610c3083610ba6565b94602093909301359350505056fe608060405234801561001057600080fd5b50614502806100206000396000f3fe608060405234801561001057600080fd5b506004361061028a5760003560e01c80638129fc1c1161015c578063bda39cad116100ce578063d294f09311610087578063d294f0931461064e578063d505accf14610656578063dd62ed3e14610669578063ebeb31db14610694578063f140a35a1461069c578063fff6cae9146106af57600080fd5b8063bda39cad14610604578063bf944dbc1461060d578063c245febc14610616578063c45a01551461061f578063c5700a0214610632578063d21220a71461063b57600080fd5b80639d63848a116101205780639d63848a146105655780639e8cc04b1461058b5780639f767c881461059e578063a1ac4d13146105be578063a9059cbb146105de578063bc25cf77146105f157600080fd5b80638129fc1c146104f057806389afcb44146104f85780638a7b8cf21461052057806395d89b411461054a5780639af1d35a1461055257600080fd5b8063252c09d711610200578063517b3f82116101b9578063517b3f821461046e5780635881c475146104815780635a76f25e146104945780636a6278421461049d57806370a08231146104b05780637ecebe00146104d057600080fd5b8063252c09d7146103b4578063313ce567146103c757806332c0defd146103e1578063392f37e9146103ea578063443cb4bc146104455780634d5a9f8a1461044e57600080fd5b806313345fe11161025257806313345fe11461033557806318160ddd146103555780631df8c7171461036c578063205aabf11461037457806322be3de11461039457806323b872dd146103a157600080fd5b8063022c0d9f1461028f57806306fdde03146102a45780630902f1ac146102c2578063095ea7b3146102e75780630dfe16811461030a575b600080fd5b6102a261029d366004613705565b6106b7565b005b6102ac610dad565b6040516102b991906137cb565b60405180910390f35b6010546011546012545b604080519384526020840192909252908201526060016102b9565b6102fa6102f53660046137fe565b610e3b565b60405190151581526020016102b9565b60095461031d906001600160a01b031681565b6040516001600160a01b0390911681526020016102b9565b61034861034336600461382a565b610ea8565b6040516102b99190613865565b61035e60045481565b6040519081526020016102b9565b6102cc6110a4565b61035e6103823660046138a9565b60186020526000908152604090205481565b6003546102fa9060ff1681565b6102fa6103af3660046138c6565b611113565b6102cc6103c2366004613907565b6111dc565b6103cf601281565b60405160ff90911681526020016102b9565b61035e60155481565b600e54600f54601054601154600354600954600a5460408051978852602088019690965294860193909352606085019190915260ff16151560808401526001600160a01b0390811660a08401521660c082015260e0016102b9565b61035e60105481565b61035e61045c3660046138a9565b60196020526000908152604090205481565b61035e61047c3660046137fe565b61120f565b61034861048f366004613920565b6112f8565b61035e60115481565b61035e6104ab3660046138a9565b611307565b61035e6104be3660046138a9565b60066020526000908152604090205481565b61035e6104de3660046138a9565b60086020526000908152604090205481565b6102a261156a565b61050b6105063660046138a9565b611e24565b604080519283526020830191909152016102b9565b61052861216a565b60408051825181526020808401519082015291810151908201526060016102b9565b6102ac6121ea565b600b5461031d906001600160a01b031681565b600954600a54604080516001600160a01b039384168152929091166020830152016102b9565b61035e610599366004613920565b6121f7565b61035e6105ac3660046138a9565b60176020526000908152604090205481565b61035e6105cc3660046138a9565b601a6020526000908152604090205481565b6102fa6105ec3660046137fe565b612264565b6102a26105ff3660046138a9565b61227a565b61035e60165481565b61035e60135481565b61035e60145481565b600c5461031d906001600160a01b031681565b61035e60125481565b600a5461031d906001600160a01b031681565b61050b612391565b6102a2610664366004613964565b61249b565b61035e6106773660046139d5565b600560209081526000928352604080842090915290825290205481565b600d5461035e565b61035e6106aa366004613a0e565b6127a3565b6102a261286b565b601b5460ff16156106e35760405162461bcd60e51b81526004016106da90613a33565b60405180910390fd5b601b805460ff19166001179055600c54604080516358c3de9360e11b815290516001600160a01b039092169163b187bd2691600480820192602092909190829003018186803b15801561073557600080fd5b505afa158015610749573d6000803e3d6000fd5b505050506040513d601f19601f8201168201806040525081019061076d9190613a6b565b1561077757600080fd5b60008511806107865750600084115b6107b85760405162461bcd60e51b8152602060048201526003602482015262494f4160e81b60448201526064016106da565b60105460115481871080156107cc57508086105b6107fd5760405162461bcd60e51b8152602060048201526002602482015261125360f21b60448201526064016106da565b600954600a5460009182916001600160a01b0391821691908116908916821480159061083b5750806001600160a01b0316896001600160a01b031614155b61086c5760405162461bcd60e51b8152602060048201526002602482015261125560f21b60448201526064016106da565b8a1561087d5761087d828a8d6129aa565b891561088e5761088e818a8c6129aa565b86156108fb57604051639a7bff7960e01b81526001600160a01b038a1690639a7bff79906108c89033908f908f908e908e90600401613a86565b600060405180830381600087803b1580156108e257600080fd5b505af11580156108f6573d6000803e3d6000fd5b505050505b6040516370a0823160e01b81523060048201526001600160a01b038316906370a082319060240160206040518083038186803b15801561093a57600080fd5b505afa15801561094e573d6000803e3d6000fd5b505050506040513d601f19601f820116820180604052508101906109729190613ad2565b6040516370a0823160e01b81523060048201529094506001600160a01b038216906370a082319060240160206040518083038186803b1580156109b457600080fd5b505afa1580156109c8573d6000803e3d6000fd5b505050506040513d601f19601f820116820180604052508101906109ec9190613ad2565b92505050600089856109fe9190613b01565b8311610a0b576000610a1f565b610a158a86613b01565b610a1f9084613b01565b90506000610a2d8a86613b01565b8311610a3a576000610a4e565b610a448a86613b01565b610a4e9084613b01565b90506000821180610a5f5750600081115b610a915760405162461bcd60e51b815260206004820152600360248201526249494160e81b60448201526064016106da565b600954600a546001600160a01b0391821691168315610b4f57600c54600354604051632895a2f560e11b815260ff90911615156004820152610b4f91612710916001600160a01b039091169063512b45ea9060240160206040518083038186803b158015610afe57600080fd5b505afa158015610b12573d6000803e3d6000fd5b505050506040513d601f19601f82011682018060405250810190610b369190613ad2565b610b409087613b18565b610b4a9190613b37565b612b0d565b8215610bfa57600c54600354604051632895a2f560e11b815260ff90911615156004820152610bfa91612710916001600160a01b039091169063512b45ea9060240160206040518083038186803b158015610ba957600080fd5b505afa158015610bbd573d6000803e3d6000fd5b505050506040513d601f19601f82011682018060405250810190610be19190613ad2565b610beb9086613b18565b610bf59190613b37565b612bac565b6040516370a0823160e01b81523060048201526001600160a01b038316906370a082319060240160206040518083038186803b158015610c3957600080fd5b505afa158015610c4d573d6000803e3d6000fd5b505050506040513d601f19601f82011682018060405250810190610c719190613ad2565b6040516370a0823160e01b81523060048201529096506001600160a01b038216906370a082319060240160206040518083038186803b158015610cb357600080fd5b505afa158015610cc7573d6000803e3d6000fd5b505050506040513d601f19601f82011682018060405250810190610ceb9190613ad2565b9450610cf78888612c44565b610d018787612c44565b1015610d335760405162461bcd60e51b81526020600482015260016024820152604b60f81b60448201526064016106da565b5050610d4184848888612d3d565b60408051838152602081018390529081018c9052606081018b90526001600160a01b038a169033907fd78ad95fa46c994b6551d0da85fc275fe613ce37657fb8d5e3d130840159d8229060800160405180910390a35050601b805460ff19169055505050505050505050565b60018054610dba90613b59565b80601f0160208091040260200160405190810160405280929190818152602001828054610de690613b59565b8015610e335780601f10610e0857610100808354040283529160200191610e33565b820191906000526020600020905b815481529060010190602001808311610e1657829003601f168201915b505050505081565b3360008181526005602090815260408083206001600160a01b038716808552925280832085905551919290917f8c5be1e5ebec7d5bd14f71427d1e84f3dd0314c0f7b2291e5b200ac8c7c3b92590610e969086815260200190565b60405180910390a35060015b92915050565b606060008367ffffffffffffffff811115610ec557610ec5613b8e565b604051908082528060200260200182016040528015610eee578160200160208202803683370190505b50600d54909150600090610f0490600190613b01565b90506000610f128587613b18565b610f1c9083613b01565b90506000805b8383101561109457610f348784613ba4565b91506000600d8481548110610f4b57610f4b613bbc565b906000526020600020906003020160000154600d8481548110610f7057610f70613bbc565b906000526020600020906003020160000154610f8c9190613b01565b9050600081600d8681548110610fa457610fa4613bbc565b906000526020600020906003020160010154600d8681548110610fc957610fc9613bbc565b906000526020600020906003020160010154610fe59190613b01565b610fef9190613b37565b9050600082600d878154811061100757611007613bbc565b906000526020600020906003020160020154600d878154811061102c5761102c613bbc565b9060005260206000209060030201600201546110489190613b01565b6110529190613b37565b90506110608c8e8484612ed1565b88858151811061107257611072613bbc565b602090810291909101015250505060010161108d8784613ba4565b9250610f22565b509293505050505b949350505050565b60135460145442600080806110c26010546011546012549192909190565b92509250925083811461110b5760006110db8286613b01565b90506110e78185613b18565b6110f19088613ba4565b96506110fd8184613b18565b6111079087613ba4565b9550505b505050909192565b6001600160a01b03831660008181526005602090815260408083203380855292528220549192909190821480159061114d57506000198114155b156111c357600061115e8583613b01565b6001600160a01b038881166000818152600560209081526040808320948916808452948252918290208590559051848152939450919290917f8c5be1e5ebec7d5bd14f71427d1e84f3dd0314c0f7b2291e5b200ac8c7c3b925910160405180910390a3505b6111ce868686613072565b6001925050505b9392505050565b600d81815481106111ec57600080fd5b600091825260209091206003909102018054600182015460029092015490925083565b60008061121a61216a565b90506000806112276110a4565b508451919350915042141561129057600d805461124690600290613b01565b8154811061125657611256613bbc565b9060005260206000209060030201604051806060016040529081600082015481526020016001820154815260200160028201548152505092505b825160009061129f9042613b01565b90506000818560200151856112b49190613b01565b6112be9190613b37565b90506000828660400151856112d39190613b01565b6112dd9190613b37565b90506112eb888a8484612ed1565b9998505050505050505050565b606061109c8484846001610ea8565b601b5460009060ff161561132d5760405162461bcd60e51b81526004016106da90613a33565b601b805460ff191660011790556010546011546009546040516370a0823160e01b81523060048201526000916001600160a01b0316906370a082319060240160206040518083038186803b15801561138457600080fd5b505afa158015611398573d6000803e3d6000fd5b505050506040513d601f19601f820116820180604052508101906113bc9190613ad2565b600a546040516370a0823160e01b81523060048201529192506000916001600160a01b03909116906370a082319060240160206040518083038186803b15801561140557600080fd5b505afa158015611419573d6000803e3d6000fd5b505050506040513d601f19601f8201168201806040525081019061143d9190613ad2565b9050600061144b8584613b01565b905060006114598584613b01565b60045490915080611497576103e86114796114748486613b18565b613132565b6114839190613b01565b975061149260006103e86131a2565b6114cc565b6114c9876114a58386613b18565b6114af9190613b37565b876114ba8486613b18565b6114c49190613b37565b613235565b97505b600088116115025760405162461bcd60e51b8152602060048201526003602482015262494c4d60e81b60448201526064016106da565b61150c89896131a2565b61151885858989612d3d565b604080518481526020810184905233917f4c209b5fc8ad50758f13e2e1088ba56a560dff690a1c6fef26394f4c03821c4f910160405180910390a25050601b805460ff19169055509395945050505050565b600054610100900460ff161580801561158a5750600054600160ff909116105b806115a45750303b1580156115a4575060005460ff166001145b6116075760405162461bcd60e51b815260206004820152602e60248201527f496e697469616c697a61626c653a20636f6e747261637420697320616c72656160448201526d191e481a5b9a5d1a585b1a5e995960921b60648201526084016106da565b6000805460ff19166001179055801561162a576000805461ff0019166101001790555b600c80546001600160a01b031916339081179091556040805163eb13c4cf60e01b815290516000928392839263eb13c4cf91600480820192606092909190829003018186803b15801561167c57600080fd5b505afa158015611690573d6000803e3d6000fd5b505050506040513d601f19601f820116820180604052508101906116b49190613bd2565b6003805482151560ff19909116179055600a80546001600160a01b038085166001600160a01b0319928316179092556009805492861692909116919091179055604051929550909350915060009061170b9061364a565b604051809103906000f080158015611727573d6000803e3d6000fd5b5060405163485cc95560e01b81526001600160a01b03868116600483015285811660248301529192509082169063485cc95590604401600060405180830381600087803b15801561177757600080fd5b505af115801561178b573d6000803e3d6000fd5b5050600b80546001600160a01b0319166001600160a01b038516179055505081156119f557836001600160a01b03166395d89b416040518163ffffffff1660e01b815260040160006040518083038186803b1580156117e957600080fd5b505afa1580156117fd573d6000803e3d6000fd5b505050506040513d6000823e601f3d908101601f191682016040526118259190810190613c1a565b836001600160a01b03166395d89b416040518163ffffffff1660e01b815260040160006040518083038186803b15801561185e57600080fd5b505afa158015611872573d6000803e3d6000fd5b505050506040513d6000823e601f3d908101601f1916820160405261189a9190810190613c1a565b6040516020016118ab929190613cc7565b604051602081830303815290604052600190805190602001906118cf929190613657565b50836001600160a01b03166395d89b416040518163ffffffff1660e01b815260040160006040518083038186803b15801561190957600080fd5b505afa15801561191d573d6000803e3d6000fd5b505050506040513d6000823e601f3d908101601f191682016040526119459190810190613c1a565b836001600160a01b03166395d89b416040518163ffffffff1660e01b815260040160006040518083038186803b15801561197e57600080fd5b505afa158015611992573d6000803e3d6000fd5b505050506040513d6000823e601f3d908101601f191682016040526119ba9190810190613c1a565b6040516020016119cb929190613d1e565b604051602081830303815290604052600290805190602001906119ef929190613657565b50611c36565b836001600160a01b03166395d89b416040518163ffffffff1660e01b815260040160006040518083038186803b158015611a2e57600080fd5b505afa158015611a42573d6000803e3d6000fd5b505050506040513d6000823e601f3d908101601f19168201604052611a6a9190810190613c1a565b836001600160a01b03166395d89b416040518163ffffffff1660e01b815260040160006040518083038186803b158015611aa357600080fd5b505afa158015611ab7573d6000803e3d6000fd5b505050506040513d6000823e601f3d908101601f19168201604052611adf9190810190613c1a565b604051602001611af0929190613d6b565b60405160208183030381529060405260019080519060200190611b14929190613657565b50836001600160a01b03166395d89b416040518163ffffffff1660e01b815260040160006040518083038186803b158015611b4e57600080fd5b505afa158015611b62573d6000803e3d6000fd5b505050506040513d6000823e601f3d908101601f19168201604052611b8a9190810190613c1a565b836001600160a01b03166395d89b416040518163ffffffff1660e01b815260040160006040518083038186803b158015611bc357600080fd5b505afa158015611bd7573d6000803e3d6000fd5b505050506040513d6000823e601f3d908101601f19168201604052611bff9190810190613c1a565b604051602001611c10929190613dc4565b60405160208183030381529060405260029080519060200190611c34929190613657565b505b836001600160a01b031663313ce5676040518163ffffffff1660e01b815260040160206040518083038186803b158015611c6f57600080fd5b505afa158015611c83573d6000803e3d6000fd5b505050506040513d601f19601f82011682018060405250810190611ca79190613de4565b611cb290600a613ee5565b600e81905550826001600160a01b031663313ce5676040518163ffffffff1660e01b815260040160206040518083038186803b158015611cf157600080fd5b505afa158015611d05573d6000803e3d6000fd5b505050506040513d601f19601f82011682018060405250810190611d299190613de4565b611d3490600a613ee5565b600f55505060408051606081018252428152600060208201818152928201818152600d8054600181018255925291517fd7b6990105719101dabeb77144f2a3385c8033acd3af97e9423a695e81ad1eb560039092029182015591517fd7b6990105719101dabeb77144f2a3385c8033acd3af97e9423a695e81ad1eb6830155517fd7b6990105719101dabeb77144f2a3385c8033acd3af97e9423a695e81ad1eb79091015550508015611e21576000805461ff0019169055604051600181527f7f26b83ff96e1f2b6a682f133852f6798a09c465da95921460cefb38474024989060200160405180910390a15b50565b601b54600090819060ff1615611e4c5760405162461bcd60e51b81526004016106da90613a33565b601b805460ff19166001179055601054601154600954600a546040516370a0823160e01b81523060048201526001600160a01b03928316929091169060009083906370a082319060240160206040518083038186803b158015611eae57600080fd5b505afa158015611ec2573d6000803e3d6000fd5b505050506040513d601f19601f82011682018060405250810190611ee69190613ad2565b6040516370a0823160e01b81523060048201529091506000906001600160a01b038416906370a082319060240160206040518083038186803b158015611f2b57600080fd5b505afa158015611f3f573d6000803e3d6000fd5b505050506040513d601f19601f82011682018060405250810190611f639190613ad2565b306000908152600660205260409020546004549192509080611f858584613b18565b611f8f9190613b37565b995080611f9c8484613b18565b611fa69190613b37565b985060008a118015611fb85750600089115b611fea5760405162461bcd60e51b815260206004820152600360248201526224a62160e91b60448201526064016106da565b611ff4308361324b565b611fff868c8c6129aa565b61200a858c8b6129aa565b6040516370a0823160e01b81523060048201526001600160a01b038716906370a082319060240160206040518083038186803b15801561204957600080fd5b505afa15801561205d573d6000803e3d6000fd5b505050506040513d601f19601f820116820180604052508101906120819190613ad2565b6040516370a0823160e01b81523060048201529094506001600160a01b038616906370a082319060240160206040518083038186803b1580156120c357600080fd5b505afa1580156120d7573d6000803e3d6000fd5b505050506040513d601f19601f820116820180604052508101906120fb9190613ad2565b925061210984848a8a612d3d565b604080518b8152602081018b90526001600160a01b038d169133917fdccd412f0b1252819cb1fd330b93224ca42612892bb3f4f789976e6d81936496910160405180910390a35050601b805460ff1916905550959794965093945050505050565b61218e60405180606001604052806000815260200160008152602001600081525090565b600d805461219e90600190613b01565b815481106121ae576121ae613bbc565b90600052602060002090600302016040518060600160405290816000820154815260200160018201548152602001600282015481525050905090565b60028054610dba90613b59565b6000806122078585856001610ea8565b90506000805b825181101561224f5782818151811061222857612228613bbc565b60200260200101518261223b9190613ba4565b91508061224781613ef4565b91505061220d565b5061225a8482613b37565b9695505050505050565b6000612271338484613072565b50600192915050565b601b5460ff161561229d5760405162461bcd60e51b81526004016106da90613a33565b601b805460ff19166001179055600954600a546010546040516370a0823160e01b81523060048201526001600160a01b03938416939092169161234a91849186919083906370a08231906024015b60206040518083038186803b15801561230357600080fd5b505afa158015612317573d6000803e3d6000fd5b505050506040513d601f19601f8201168201806040525081019061233b9190613ad2565b6123459190613b01565b6129aa565b6011546040516370a0823160e01b81523060048201526123829183918691906001600160a01b038416906370a08231906024016122eb565b5050601b805460ff1916905550565b60008061239d336132d6565b505033600090815260196020908152604080832054601a90925290912054811515806123c95750600081115b1561249757336000818152601960209081526040808320839055601a90915280822091909155600b54905163299e7ae760e11b8152600481019290925260248201849052604482018390526001600160a01b03169063533cf5ce90606401600060405180830381600087803b15801561244157600080fd5b505af1158015612455573d6000803e3d6000fd5b505060408051858152602081018590523393508392507f865ca08d59f5cb456e85cd2f7ef63664ea4f73327414e9d8152c4158b0e94645910160405180910390a35b9091565b428410156124db5760405162461bcd60e51b815260206004820152600d60248201526c14185a5c8e8811561412549151609a1b60448201526064016106da565b7f8b73c3c69bb8fe3d512ecc4cf759cc79239f7b179b0ffacaa9a75d522b39400f600160405161250b9190613f0f565b60408051918290038220828201825260018352603160f81b6020938401528151928301939093528101919091527fc89efdaa54c0f20c7adf612882df0950f5a951637e0307cdcb4c672f298b8bc660608201524660808201523060a082015260c00160408051601f19818403018152918152815160209283012060078190556001600160a01b038a166000908152600890935290822080547f6e71edae12b1b97f4d1f60370fef10105fa2faae0126114a169c64845d6126c9918b918b918b9190876125d683613ef4565b909155506040805160208101969096526001600160a01b0394851690860152929091166060840152608083015260a082015260c0810187905260e0016040516020818303038152906040528051906020012060405160200161264f92919061190160f01b81526002810192909252602282015260420190565b60408051601f198184030181528282528051602091820120600080855291840180845281905260ff88169284019290925260608301869052608083018590529092509060019060a0016020604051602081039080840390855afa1580156126ba573d6000803e3d6000fd5b5050604051601f1901519150506001600160a01b038116158015906126f05750886001600160a01b0316816001600160a01b0316145b61273c5760405162461bcd60e51b815260206004820152601760248201527f506169723a20494e56414c49445f5349474e415455524500000000000000000060448201526064016106da565b6001600160a01b038981166000818152600560209081526040808320948d16808452948252918290208b905590518a81527f8c5be1e5ebec7d5bd14f71427d1e84f3dd0314c0f7b2291e5b200ac8c7c3b925910160405180910390a3505050505050505050565b601054601154600c54600354604051632895a2f560e11b815260ff909116151560048201526000939291612710916001600160a01b039091169063512b45ea9060240160206040518083038186803b1580156127fe57600080fd5b505afa158015612812573d6000803e3d6000fd5b505050506040513d601f19601f820116820180604052508101906128369190613ad2565b6128409087613b18565b61284a9190613b37565b6128549086613b01565b945061286285858484612ed1565b95945050505050565b601b5460ff161561288e5760405162461bcd60e51b81526004016106da90613a33565b601b805460ff191660011790556009546040516370a0823160e01b815230600482015261299e916001600160a01b0316906370a082319060240160206040518083038186803b1580156128e057600080fd5b505afa1580156128f4573d6000803e3d6000fd5b505050506040513d601f19601f820116820180604052508101906129189190613ad2565b600a546040516370a0823160e01b81523060048201526001600160a01b03909116906370a082319060240160206040518083038186803b15801561295b57600080fd5b505afa15801561296f573d6000803e3d6000fd5b505050506040513d601f19601f820116820180604052508101906129939190613ad2565b601054601154612d3d565b601b805460ff19169055565b6000836001600160a01b03163b116129fa5760405162461bcd60e51b81526020600482015260136024820152722830b4b91d1034b73b30b634b2103a37b5b2b760691b60448201526064016106da565b604080516001600160a01b038481166024830152604480830185905283518084039091018152606490920183526020820180516001600160e01b031663a9059cbb60e01b1790529151600092839290871691612a569190613fab565b6000604051808303816000865af19150503d8060008114612a93576040519150601f19603f3d011682016040523d82523d6000602084013e612a98565b606091505b5091509150818015612ac2575080511580612ac2575080806020019051810190612ac29190613a6b565b612b065760405162461bcd60e51b815260206004820152601560248201527414185a5c8e881d1c985b9cd9995c8819985a5b1959605a1b60448201526064016106da565b5050505050565b600954600b54612b2a916001600160a01b039081169116836129aa565b600454600090612b4283670de0b6b3a7640000613b18565b612b4c9190613b37565b90508015612b6c578060156000828254612b669190613ba4565b90915550505b604080518381526000602082015233917f112c256902bf554b6ed882d2936687aaeb4225e8cd5b51303c90ca6cf43a860291015b60405180910390a25050565b600a54600b54612bc9916001600160a01b039081169116836129aa565b600454600090612be183670de0b6b3a7640000613b18565b612beb9190613b37565b90508015612c0b578060166000828254612c059190613ba4565b90915550505b60408051600081526020810184905233917f112c256902bf554b6ed882d2936687aaeb4225e8cd5b51303c90ca6cf43a86029101612ba0565b60035460009060ff1615612d2c57600e54600090612c6a85670de0b6b3a7640000613b18565b612c749190613b37565b90506000600f5484670de0b6b3a7640000612c8f9190613b18565b612c999190613b37565b90506000670de0b6b3a7640000612cb08385613b18565b612cba9190613b37565b90506000670de0b6b3a7640000612cd18480613b18565b612cdb9190613b37565b670de0b6b3a7640000612cee8680613b18565b612cf89190613b37565b612d029190613ba4565b9050670de0b6b3a7640000612d178284613b18565b612d219190613b37565b945050505050610ea2565b612d368284613b18565b9050610ea2565b6012544290600090612d4f9083613b01565b9050600081118015612d6057508315155b8015612d6b57508215155b15612db257612d7a8185613b18565b60136000828254612d8b9190613ba4565b90915550612d9b90508184613b18565b60146000828254612dac9190613ba4565b90915550505b6000612dbc61216a565b8051909150612dcb9084613b01565b9150610708821115612e80576040805160608101825284815260135460208201908152601454928201928352600d805460018101825560009190915291517fd7b6990105719101dabeb77144f2a3385c8033acd3af97e9423a695e81ad1eb5600390930292830155517fd7b6990105719101dabeb77144f2a3385c8033acd3af97e9423a695e81ad1eb682015590517fd7b6990105719101dabeb77144f2a3385c8033acd3af97e9423a695e81ad1eb7909101555b60108790556011869055601283905560408051888152602081018890527fcf2aa50876cdfbb541206f89af0ee78d44a2abf8d328e37fa4917f982149848a910160405180910390a150505050505050565b60035460009060ff1615613022576000612eeb8484612c44565b600e54909150612f0385670de0b6b3a7640000613b18565b612f0d9190613b37565b600f54909450612f2584670de0b6b3a7640000613b18565b612f2f9190613b37565b60095490935060009081906001600160a01b03888116911614612f53578486612f56565b85855b60095491935091506001600160a01b03888116911614612f9457600f54612f8589670de0b6b3a7640000613b18565b612f8f9190613b37565b612fb3565b600e54612fa989670de0b6b3a7640000613b18565b612fb39190613b37565b97506000612fcb612fc4848b613ba4565b8584613436565b612fd59083613b01565b600954909150670de0b6b3a7640000906001600160a01b038a8116911614612fff57600e54613003565b600f545b61300d9083613b18565b6130179190613b37565b94505050505061109c565b60095460009081906001600160a01b03878116911614613043578385613046565b84845b90925090506130558783613ba4565b61305f8289613b18565b6130699190613b37565b9250505061109c565b61307b836132d6565b613084826132d6565b6001600160a01b038316600090815260066020526040812080548392906130ac908490613b01565b90915550506001600160a01b038216600090815260066020526040812080548392906130d9908490613ba4565b92505081905550816001600160a01b0316836001600160a01b03167fddf252ad1be2c89b69c2b068fc378daa952ba7f163c4a11628f55a4df523b3ef8360405161312591815260200190565b60405180910390a3505050565b60006003821115613193575080600061314c600283613b37565b613157906001613ba4565b90505b8181101561318d579050806002816131728186613b37565b61317c9190613ba4565b6131869190613b37565b905061315a565b50919050565b811561319d575060015b919050565b6131ab826132d6565b80600460008282546131bd9190613ba4565b90915550506001600160a01b038216600090815260066020526040812080548392906131ea908490613ba4565b90915550506040518181526001600160a01b038316906000907fddf252ad1be2c89b69c2b068fc378daa952ba7f163c4a11628f55a4df523b3ef906020015b60405180910390a35050565b600081831061324457816111d5565b5090919050565b613254826132d6565b80600460008282546132669190613b01565b90915550506001600160a01b03821660009081526006602052604081208054839290613293908490613b01565b90915550506040518181526000906001600160a01b038416907fddf252ad1be2c89b69c2b068fc378daa952ba7f163c4a11628f55a4df523b3ef90602001613229565b6001600160a01b0381166000908152600660205260409020548015613404576001600160a01b03821660009081526017602090815260408083208054601880855292852080546015546016549481905594909552829055936133388584613b01565b905060006133468584613b01565b905081156133a1576000670de0b6b3a7640000613363848a613b18565b61336d9190613b37565b6001600160a01b038a1660009081526019602052604081208054929350839290919061339a908490613ba4565b9091555050505b80156133fa576000670de0b6b3a76400006133bc838a613b18565b6133c69190613b37565b6001600160a01b038a166000908152601a60205260408120805492935083929091906133f3908490613ba4565b9091555050505b5050505050505050565b6015546001600160a01b0383166000908152601760209081526040808320939093556016546018909152919020555050565b6000805b60ff81101561353c578260006134508783613545565b9050858110156134a057600061346688876135e2565b6134708389613b01565b61348290670de0b6b3a7640000613b18565b61348c9190613b37565b90506134988187613ba4565b9550506134e2565b60006134ac88876135e2565b6134b68884613b01565b6134c890670de0b6b3a7640000613b18565b6134d29190613b37565b90506134de8187613b01565b9550505b8185111561350b5760016134f68387613b01565b11613506578493505050506111d5565b613527565b60016135178684613b01565b11613527578493505050506111d5565b5050808061353490613ef4565b91505061343a565b50909392505050565b6000670de0b6b3a76400008281858161355e8280613b18565b6135689190613b37565b6135729190613b18565b61357c9190613b37565b6135869190613b18565b6135909190613b37565b670de0b6b3a76400008084816135a68280613b18565b6135b09190613b37565b6135ba9190613b18565b6135c49190613b37565b6135ce9086613b18565b6135d89190613b37565b6111d59190613ba4565b6000670de0b6b3a764000083816135f98280613b18565b6136039190613b37565b61360d9190613b18565b6136179190613b37565b670de0b6b3a76400008061362b8580613b18565b6136359190613b37565b613640866003613b18565b6135ce9190613b18565b61050580613fc883390190565b82805461366390613b59565b90600052602060002090601f01602090048101928261368557600085556136cb565b82601f1061369e57805160ff19168380011785556136cb565b828001600101855582156136cb579182015b828111156136cb5782518255916020019190600101906136b0565b506136d79291506136db565b5090565b5b808211156136d757600081556001016136dc565b6001600160a01b0381168114611e2157600080fd5b60008060008060006080868803121561371d57600080fd5b85359450602086013593506040860135613736816136f0565b9250606086013567ffffffffffffffff8082111561375357600080fd5b818801915088601f83011261376757600080fd5b81358181111561377657600080fd5b89602082850101111561378857600080fd5b9699959850939650602001949392505050565b60005b838110156137b657818101518382015260200161379e565b838111156137c5576000848401525b50505050565b60208152600082518060208401526137ea81604085016020870161379b565b601f01601f19169190910160400192915050565b6000806040838503121561381157600080fd5b823561381c816136f0565b946020939093013593505050565b6000806000806080858703121561384057600080fd5b843561384b816136f0565b966020860135965060408601359560600135945092505050565b6020808252825182820181905260009190848201906040850190845b8181101561389d57835183529284019291840191600101613881565b50909695505050505050565b6000602082840312156138bb57600080fd5b81356111d5816136f0565b6000806000606084860312156138db57600080fd5b83356138e6816136f0565b925060208401356138f6816136f0565b929592945050506040919091013590565b60006020828403121561391957600080fd5b5035919050565b60008060006060848603121561393557600080fd5b8335613940816136f0565b95602085013595506040909401359392505050565b60ff81168114611e2157600080fd5b600080600080600080600060e0888a03121561397f57600080fd5b873561398a816136f0565b9650602088013561399a816136f0565b9550604088013594506060880135935060808801356139b881613955565b9699959850939692959460a0840135945060c09093013592915050565b600080604083850312156139e857600080fd5b82356139f3816136f0565b91506020830135613a03816136f0565b809150509250929050565b60008060408385031215613a2157600080fd5b823591506020830135613a03816136f0565b6020808252600e908201526d4e6f2072652d656e7472616e637960901b604082015260600190565b8051801515811461319d57600080fd5b600060208284031215613a7d57600080fd5b6111d582613a5b565b60018060a01b038616815284602082015283604082015260806060820152816080820152818360a0830137600081830160a090810191909152601f909201601f19160101949350505050565b600060208284031215613ae457600080fd5b5051919050565b634e487b7160e01b600052601160045260246000fd5b600082821015613b1357613b13613aeb565b500390565b6000816000190483118215151615613b3257613b32613aeb565b500290565b600082613b5457634e487b7160e01b600052601260045260246000fd5b500490565b600181811c90821680613b6d57607f821691505b6020821081141561318d57634e487b7160e01b600052602260045260246000fd5b634e487b7160e01b600052604160045260246000fd5b60008219821115613bb757613bb7613aeb565b500190565b634e487b7160e01b600052603260045260246000fd5b600080600060608486031215613be757600080fd5b8351613bf2816136f0565b6020850151909350613c03816136f0565b9150613c1160408501613a5b565b90509250925092565b600060208284031215613c2c57600080fd5b815167ffffffffffffffff80821115613c4457600080fd5b818401915084601f830112613c5857600080fd5b815181811115613c6a57613c6a613b8e565b604051601f8201601f19908116603f01168101908382118183101715613c9257613c92613b8e565b81604052828152876020848701011115613cab57600080fd5b613cbc83602083016020880161379b565b979650505050505050565b6e029ba30b13632ab189020a6a690169608d1b815260008351613cf181600f85016020880161379b565b602f60f81b600f918401918201528351613d1281601084016020880161379b565b01601001949350505050565b6473414d4d2d60d81b815260008351613d3e81600585016020880161379b565b602f60f81b6005918401918201528351613d5f81600684016020880161379b565b01600601949350505050565b7002b37b630ba34b632ab189020a6a690169607d1b815260008351613d9781601185016020880161379b565b602f60f81b6011918401918201528351613db881601284016020880161379b565b01601201949350505050565b6476414d4d2d60d81b815260008351613d3e81600585016020880161379b565b600060208284031215613df657600080fd5b81516111d581613955565b600181815b80851115613e3c578160001904821115613e2257613e22613aeb565b80851615613e2f57918102915b93841c9390800290613e06565b509250929050565b600082613e5357506001610ea2565b81613e6057506000610ea2565b8160018114613e765760028114613e8057613e9c565b6001915050610ea2565b60ff841115613e9157613e91613aeb565b50506001821b610ea2565b5060208310610133831016604e8410600b8410161715613ebf575081810a610ea2565b613ec98383613e01565b8060001904821115613edd57613edd613aeb565b029392505050565b60006111d560ff841683613e44565b6000600019821415613f0857613f08613aeb565b5060010190565b600080835481600182811c915080831680613f2b57607f831692505b6020808410821415613f4b57634e487b7160e01b86526022600452602486fd5b818015613f5f5760018114613f7057613f9d565b60ff19861689528489019650613f9d565b60008a81526020902060005b86811015613f955781548b820152908501908301613f7c565b505084890196505b509498975050505050505050565b60008251613fbd81846020870161379b565b919091019291505056fe608060405234801561001057600080fd5b506104e5806100206000396000f3fe608060405234801561001057600080fd5b50600436106100365760003560e01c8063485cc9551461003b578063533cf5ce14610050575b600080fd5b61004e6100493660046103e5565b610063565b005b61004e61005e366004610418565b6101be565b600054610100900460ff16158080156100835750600054600160ff909116105b8061009d5750303b15801561009d575060005460ff166001145b6101055760405162461bcd60e51b815260206004820152602e60248201527f496e697469616c697a61626c653a20636f6e747261637420697320616c72656160448201526d191e481a5b9a5d1a585b1a5e995960921b60648201526084015b60405180910390fd5b6000805460ff191660011790558015610128576000805461ff0019166101001790555b6000805462010000330262010000600160b01b0319909116179055600180546001600160a01b038581166001600160a01b031992831617909255600280549285169290911691909117905580156101b9576000805461ff0019169055604051600181527f7f26b83ff96e1f2b6a682f133852f6798a09c465da95921460cefb38474024989060200160405180910390a15b505050565b6000546201000090046001600160a01b0316331461021e5760405162461bcd60e51b815260206004820152601b60248201527f4f6e6c79207061697220636f6e74726163742063616e2063616c6c000000000060448201526064016100fc565b811561023b5760015461023b906001600160a01b03168484610254565b80156101b9576002546101b9906001600160a01b031684835b6000836001600160a01b03163b116102ae5760405162461bcd60e51b815260206004820152601760248201527f50616972466565733a20696e76616c696420746f6b656e00000000000000000060448201526064016100fc565b604080516001600160a01b038481166024830152604480830185905283518084039091018152606490920183526020820180516001600160e01b031663a9059cbb60e01b179052915160009283929087169161030a919061044b565b6000604051808303816000865af19150503d8060008114610347576040519150601f19603f3d011682016040523d82523d6000602084013e61034c565b606091505b50915091508180156103765750805115806103765750808060200190518101906103769190610486565b6103c25760405162461bcd60e51b815260206004820152601960248201527f50616972466565733a207472616e73666572206661696c65640000000000000060448201526064016100fc565b5050505050565b80356001600160a01b03811681146103e057600080fd5b919050565b600080604083850312156103f857600080fd5b610401836103c9565b915061040f602084016103c9565b90509250929050565b60008060006060848603121561042d57600080fd5b610436846103c9565b95602085013595506040909401359392505050565b6000825160005b8181101561046c5760208186018101518583015201610452565b8181111561047b576000828501525b509190910192915050565b60006020828403121561049857600080fd5b815180151581146104a857600080fd5b939250505056fea264697066735822122016b5b090c443582aceb0c9cb435acb0ca4c704dfc48be0d836dc7322298c1b4b64736f6c63430008090033a2646970667358221220ea18704faa33174acb1fac8dbb736025c85a9217a51c5b25f915dec53c91353364736f6c63430008090033a26469706673582212205a5edf4020c9ea59d3369d415395118748866eea3d28cbdb81788d618d9bc2be64736f6c63430008090033",
    "sourcePath": "/home/kei/Workspace/Development/equalizer-exchange/v1-core/contracts/factories/PairFactory.sol",
    "compiler": {
        "name": "solc",
        "version": "0.8.9+commit.e5eed63a"
    },
    "functionHashes": {
        "MAX_FEE()": "bc063e1a",
        "acceptFeeManager()": "f94c53c7",
        "acceptPauser()": "167a6f90",
        "allPairs(uint256)": "1e3dd18b",
        "allPairsLength()": "574f2ba3",
        "createPair(address,address,bool)": "82dfdce4",
        "feeManager()": "d0fb0203",
        "getFee(bool)": "512b45ea",
        "getInitializable()": "eb13c4cf",
        "getPair(address,address,bool)": "6801cc30",
        "initialize()": "8129fc1c",
        "isPair(address)": "e5e31b13",
        "isPaused()": "b187bd26",
        "pairCodeHash()": "9aab9248",
        "pauser()": "9fd0506d",
        "pendingFeeManager()": "8a4fa0d2",
        "pendingPauser()": "9a7165e4",
        "setFee(bool,uint256)": "e1f76b44",
        "setFeeManager(address)": "472d35b9",
        "setPause(bool)": "bedb86fb",
        "setPauser(address)": "2d88af4a",
        "stableFee()": "40bbd775",
        "volatileFee()": "5084ed03"
    },
    "gasEstimates": {
        "creation": {
            "codeDepositCost": "4177200",
            "executionCost": "4801",
            "totalCost": "4182001"
        },
        "external": {
            "MAX_FEE()": "328",
            "acceptFeeManager()": "28785",
            "acceptPauser()": "28685",
            "allPairs(uint256)": "4649",
            "allPairsLength()": "2359",
            "createPair(address,address,bool)": "infinite",
            "feeManager()": "2370",
            "getFee(bool)": "2536",
            "getInitializable()": "4588",
            "getPair(address,address,bool)": "infinite",
            "initialize()": "175781",
            "isPair(address)": "2619",
            "isPaused()": "2432",
            "pairCodeHash()": "7697",
            "pauser()": "2426",
            "pendingFeeManager()": "2349",
            "pendingPauser()": "2371",
            "setFee(bool,uint256)": "24685",
            "setFeeManager(address)": "26823",
            "setPause(bool)": "26716",
            "setPauser(address)": "26790",
            "stableFee()": "2385",
            "volatileFee()": "2318"
        }
    }
}